:020000040800F2
:1000000000800120892F0008C50C0008CD0C0008D5
:10001000D50C0008DD0C0008E50C0008000000000D
:10002000000000000000000000000000ED0C0008CF
:10003000F90C000800000000050D0008110D000873
:10004000D92F0008D92F0008D92F0008D92F000870
:10005000D92F0008D92F0008D92F0008D92F000860
:10006000D92F0008D92F0008D92F0008D92F000850
:10007000D92F0008D92F0008D92F0008D92F000840
:10008000D92F0008D92F0008D92F0008D92F000830
:10009000D92F0008D92F0008D92F0008D92F000820
:1000A000D92F0008D92F0008D92F0008D92F000810
:1000B000D92F0008D92F0008D92F0008D92F000800
:1000C000D92F0008D92F0008D92F0008D92F0008F0
:1000D000D92F0008D92F0008D92F0008D92F0008E0
:1000E0001D0D0008D92F0008D92F0008D92F0008AE
:1000F000D92F0008D92F0008D92F0008D92F0008C0
:10010000D92F0008D92F0008D92F0008D92F0008AF
:10011000D92F0008D92F0008D92F0008D92F00089F
:10012000D92F0008D92F0008D92F0008D92F00088F
:10013000D92F0008D92F0008D92F0008D92F00087F
:10014000D92F0008D92F0008D92F0008D92F00086F
:10015000D92F0008D92F0008D92F0008D92F00085F
:10016000D92F0008D92F0008D92F0008D92F00084F
:10017000D92F0008D92F0008D92F0008000000004F
:08018000D92F0008D92F000857
:1001900053B94AB9002908BF00281CBF4FF0FF31EE
:1001A0004FF0FF3000F00CB8ADF1080C6DE904CE53
:1001B00002F014FFDDF804E0DDE9022304B070472B
:1001C000704700BF10F8012B11F8013B012A28BF2E
:1001D0009A42F7D0D01A7047034613F8012B002A31
:1001E000FBD1181A01387047000000000000000021
:1001F00001F0FF01102A2BDB10F0070F08D010F8D8
:10020000013B013A8B422DD010F0070F42B3F6D1DB
:10021000F0B441EA012141EA014122F007047FF0F4
:1002200000070023F0E80256083C85EA010586EA4B
:10023000010685FA47F5A3FA87F586FA47F6A5FA87
:1002400087F68EB9EED1F0BC01F0FF0102F0070293
:1002500032B110F8013B013A83EA010313B1F8D13E
:100260000020704701387047002D06BF354603381F
:10027000073815F0010F07D1013015F4807F02BF58
:10028000013015F4C03F0130F0BC0138704700BFA9
:100290000348044B834202D0034B03B11847704715
:1002A0006800002068000020000000000548064BA0
:1002B0001B1AD90F01EBA301491002D0034B03B164
:1002C0001847704768000020680000200000000008
:1002D00010B5064C237843B9FFF7DAFF044B13B18E
:1002E0000448AFF300800123237010BD6800002094
:1002F000000000006C3A000808B5054B1BB1054929
:100300000548AFF30080BDE80840FFF7CFBF00BF4E
:10031000000000006C0000206C3A00080244034614
:10032000934200D1704703F8011BF9E770B50D4BFC
:100330000D4C00261D1BB6EBA50F09D103F096FB53
:100340000A4C0B4B00261D1BB6EBA50F05D170BD4B
:1003500054F8043B98470136EDE754F8043B9847BE
:100360000136F1E7B03C0008B03C0008B03C0008A2
:10037000B43C00087047704770B50F4C0E462168BA
:10038000054611B900F0A2F820603146284600F079
:100390009DF8431C03D14FF0FF34204670BDC41CB0
:1003A00024F00304A042F8D0211A284600F08EF869
:1003B0000130F2D1EFE700BFC00100202DE9F84382
:1003C000CD1C25F0030508350C2D38BF0C25002D5C
:1003D000064601DBA94204D90C2333600020BDE8A6
:1003E000F883334F00F066F83B681C463CBB294657
:1003F0003046FFF7C1FF431C044656D13C68A04677
:10040000B8F1000F40D1002C49D023684146304656
:1004100004EB030900F05AF8814540D121686D1AB8
:1004200029463046FFF7A8FF013038D023682B4417
:1004300023603B685A685ABBC7F800800EE0226808
:10044000521B1ED40B2A16D96119A342256018BF6E
:100450005960636808BF396062514B60304600F0F4
:100460002FF804F10B00231D20F00700C21A1CBF57
:100470001B1AA350B3E76268A3420CBF3A605A60EC
:10048000ECE723466468B1E74446D8F80480B7E750
:100490001A465B68A342FBD100235360DEE70C23BE
:1004A0003360304600F00CF898E70560D6E700BFEF
:1004B000C40100200148FFF75DBF00BFBC01002060
:1004C0000148FFF758BF00BFBC01002038B5064CFB
:1004D000002305460846236003F0BAFA431C02D104
:1004E000236803B12B6038BDC801002037B500294F
:1004F00044D051F8043C0190002BA1F10404B8BF92
:10050000E418FFF7D7FF1E4A0198136833B96360F8
:10051000146003B0BDE83040FFF7D2BFA34208D952
:10052000256861198B4201BF19685B684919216010
:10053000EDE71A465B680BB1A342FAD9116855186A
:10054000A5420BD1246821445418A3421160E0D184
:100550001C685B6853600C441460DAE702D90C2312
:100560000360D6E7256861198B4204BF19685B6890
:10057000636004BF491921605460CAE703B030BD0D
:10058000C401002080B582B000AF1B4B9B6D1A4A9E
:1005900043F400339365184B9B6D03F400337B6089
:1005A0007B68164B164A1A60144B4FF4E1325A60BE
:1005B000124B00229A60114B0022DA600F4B00228E
:1005C0001A610E4B0C225A610C4B00229A610B4BA4
:1005D0000022DA61094B00221A62084B00225A629B
:1005E000064801F070FE0346002B01D000F064FBCA
:1005F00000BF0837BD4680BD0010024054020020F5
:100600000044004080B582B000AF78607868FFF7A2
:10061000E3FD03469AB264237968064801F0AAFE16
:10062000642302220449034801F0A4FE00BF0837F6
:10063000BD4680BD54020020883A000880B588B0CD
:1006400000AF07F10C0300221A605A609A60DA606A
:100650001A612A4BDB6C294A43F00103D364274B10
:10066000DB6C03F00103BB60BB68244B1B6E234AA9
:1006700043F480431366214B1B6E03F480437B607D
:100680007B684FF4C063FB6002233B6100237B6106
:100690000323BB610723FB6107F10C0319464FF0ED
:1006A000904001F0B9FA164B164A1A60144B4FF4F9
:1006B00061425A60124B00229A60114B0022DA60AC
:1006C0000F4B00221A610E4B0C225A610C4B002278
:1006D0009A610B4B0022DA61094B00221A62084B27
:1006E00000225A62064801F0EEFD0346002B01D0BD
:1006F00000F0E2FA00BF2037BD4680BD0010024086
:10070000CC0100200038014080B582B000AF00BFAE
:10071000F91D32230122054801F0BFFE0346002BDC
:10072000F6D000BF00BF0837BD4680BDCC01002019
:1007300080B588B000AFF8600B467A607B8100F02E
:1007400041FCB8610023FB832CE007F117010A2369
:1007500001221D4801F0A1FE0346002B1DD1FB7DA7
:100760000D2B1CD0FB7D0A2B09D1FB8B002B18D045
:10077000FB8BFA68134400221A70002320E0FA8BE6
:100780007B89013B9A420DD2FB8B5A1CFA831A4695
:10079000FB681344FA7D1A7004E000BF02E000BF5A
:1007A00000E000BF00F00EFC0246BB69D31A7A6875
:1007B0009A42CAD8FB8BFA68134400221A700323AA
:1007C00018462037BD4680BDCC01002080B584B0DE
:1007D00000AFF860B9603B601346FB80F868FFF734
:1007E000FBFC03469AB26423F9680A4801F0C2FD93
:1007F000642302220849074801F0BCFDFB883A68DF
:100800001946B868FFF794FF034618461037BD46EF
:1008100080BD00BFCC010020883A000880B58AB0B6
:1008200000AF786007F108014FF47A7320227868EE
:10083000FFF7CCFF0346002B08D107F10803064958
:100840001846FFF7BFFC0346002B01D000F034FA36
:1008500000BF2837BD4680BD8C3A000880B5A4B0E3
:1008600000AF7860384A07F128031068516803C365
:1008700012891A8007F13203562200211846FFF729
:100880004DFD07F128031846FFF7A6FCC7F88C00BA
:100890000023C7F8883019E007F12802D7F88C3018
:1008A000D0187A68D7F8883013441B781A4627493D
:1008B00002F056FD03461A46D7F88C301344C7F8A9
:1008C0008C30D7F888300133C7F888307A68D7F889
:1008D000883013441B78002B03D0D7F88C305C2B66
:1008E000DAD907F1080107F128004FF47A732022C2
:1008F000FFF76CFF0346002B08D107F108031449EA
:100900001846FFF75FFC0346002B01D0012316E0D9
:1009100007F1080342F2107220211846FFF708FF82
:100920000346002B08D107F108030A491846FFF7D0
:1009300049FC0346002B01D0012300E000231846A8
:100940009037BD4680BD00BFA43A0008903A000829
:100950008C3A0008983A000880B5B0B002AF00F0B9
:10096000C3FA00F005F900F055F9FFF70BFE7048E7
:10097000FFF748FEFFF762FE4FF47A7000F02CFBA1
:10098000FFF7C2FE0023C7F8B430391D4FF47A7365
:1009900030226848FFF71AFF0346002B23D13B1D86
:1009A00007F13400644A602102F0A8FC07F1340327
:1009B0001846FFF727FE00BF6048FFF72FFF60488B
:1009C000FFF72CFF5F48FFF729FF5F48FFF726FF7F
:1009D0005E48FFF717FE002000F0DAF90121002041
:1009E00000F020FA80E0D7F8B4300133C7F8B43013
:1009F00064230D225649574801F0BCFC0023A7F898
:100A0000B23000F0DFFAC7F8A40011E0B7F8B23056
:100A100007F19402D1180A2301224E4801F03DFD4E
:100A20000346002B04D1B7F8B2300133A7F8B23037
:100A3000B7F8B2300F2B08D800F0C4FA0246D7F846
:100A4000A430D31AB3F57A7FE0D3B7F8B230002BD5
:100A500008D107F13400D7F8B4303F4A602102F0E2
:100A60004DFC37E0B7F8B23007F134000093D7F807
:100A7000B4303A4A602102F041FCC7F8AC000023D0
:100A8000A7F8AA301CE007F13402D7F8AC30D01830
:100A9000D7F8AC30C3F16001B7F8AA30B8333B44A3
:100AA00013F8243C2E4A02F029FC0246D7F8AC3059
:100AB0001344C7F8AC30B7F8AA300133A7F8AA300E
:100AC000B7F8AA20B7F8B2309A4203D2D7F8AC30C0
:100AD0005B2BD8DD07F134031846FFF793FD1D4B60
:100AE0001B680E221A6250E71E4B1B685A1C1D49D8
:100AF0000A6007F134001C4A202102F0FFFB07F1D5
:100B000034031846FFF7AAFE0346002B08D1002045
:100B100000F074F907F134031846FFF773FD02E0A3
:100B20001248FFF76FFD4FF4966000F055FADBE7CF
:100B3000B03A0008C83A0008D43A0008703B0008F0
:100B4000843B0008A03B0008B43B0008C83B0008F9
:100B5000F43A0008CC010020043B00084C3B00089C
:100B6000683B0008DC020020043C0008103C000840
:100B700080B596B000AF07F1140344220021184657
:100B8000FFF7CCFB3B4600221A605A609A60DA609D
:100B90001A614FF4007001F02FFA0346002B01D0C8
:100BA00000F08AF802237B614FF480733B621023CC
:100BB0007B620223FB6302233B6401237B640A23E1
:100BC000BB640723FB6402233B6502237B6507F1BB
:100BD0001403184600F024FA0346002B01D000F05D
:100BE0006BF80F233B6003237B600023BB60002373
:100BF000FB6000233B613B460421184600F0ECFDFE
:100C00000346002B01D000F057F800BF5837BD460F
:100C100080BD000080B58AB000AF07F11403002248
:100C20001A605A609A60DA601A61224BDB6C214AC2
:100C300043F00403D3641F4BDB6C03F004033B61FC
:100C40003B691C4BDB6C1B4A43F08003D364194B9C
:100C5000DB6C03F08003FB60FB68164BDB6C154A12
:100C600043F00103D364134BDB6C03F00103BB605F
:100C7000BB68104BDB6C0F4A43F00203D3640D4B8F
:100C8000DB6C03F002037B607B680C237B61022337
:100C9000BB610023FB6103233B6207237B6207F1F7
:100CA000140319464FF0904000F0B6FF00BF2837FC
:100CB000BD4680BD0010024080B400AF72B600BFD8
:100CC00000BFFDE780B400AF00BFFDE780B400AF18
:100CD00000BFFDE780B400AF00BFFDE780B400AF08
:100CE00000BFFDE780B400AF00BFFDE780B400AFF8
:100CF00000BFBD4680BC704780B400AF00BFBD469A
:100D000080BC704780B400AF00BFBD4680BC704758
:100D100080B500AF00F044F900BF80BD80B500AFE2
:100D20004FF4005001F03AF900BF80BD80B483B0A9
:100D300000AF0E4B1B6E0D4A43F0010313660B4BC5
:100D40001B6E03F001037B607B68084B9B6D074AB9
:100D500043F080539365054B9B6D03F080533B60DC
:100D60003B6800BF0C37BD4680BC70470010024096
:100D700080B400AF054BD3F88830044A43F47003C5
:100D8000C2F8883000BFBD4680BC704700ED00E06F
:100D900080B588B000AF0346FB7107F10C03002259
:100DA0001A605A609A60DA601A61FB79002B0BD1E5
:100DB000104BDB6C0F4A43F00103D3640D4BDB6C2B
:100DC00003F00103BB60BB682023FB6001233B6190
:100DD00000237B610223BB61FB79074A52F8233071
:100DE00007F10C021146184600F016FF00BF20372D
:100DF000BD4680BD001002405400002080B582B086
:100E000000AF0346FB71FB79054A52F823302022DC
:100E10001146184601F0A8F800BF0837BD4680BD4E
:100E20005400002080B588B000AF03460A46FB712D
:100E30001346BB7107F10C0300221A605A609A60D6
:100E4000DA601A61FB79002B0BD1254BDB6C244A4D
:100E500043F00403D364224BDB6C03F00403BB6058
:100E6000BB68BB79002B13D14FF40053FB60002308
:100E70003B6100237B610223BB61FB79194A52F875
:100E8000233007F10C021146184600F0C5FE22E09F
:100E9000BB79012B1FD14FF40053FB604FF40413B7
:100EA0003B6100237B610223BB61FB790D4A52F851
:100EB000233007F10C021146184600F0ADFE28233E
:100EC0005BB200220F21184601F0C7F928235BB25C
:100ED000184601F0DEF900BF2037BD4680BD00BFD7
:100EE000001002405800002080B582B000AF0023FF
:100EF000FB710C4B1B680B4A43F480731360032097
:100F000001F0A0F9002000F00FF80346002B02D0FA
:100F10000123FB7101E0FFF709FFFB791846083751
:100F2000BD4680BD0020024080B584B000AF78602F
:100F30000023FB73174B1B78002B23D0164B1A682A
:100F4000144B1B7819464FF47A73B3FBF1F3B2FBE1
:100F5000F3F3184601F0ABF90346002B0FD17B6881
:100F60000F2B09D8002279684FF0FF3001F075F996
:100F70000A4A7B68136007E00123FB7304E0012346
:100F8000FB7301E00123FB73FB7B18461037BD4662
:100F900080BD00BF60000020500000205C000020E9
:100FA00080B400AF054B1B781A46054B1B681344F1
:100FB000034A136000BFBD4680BC7047600000203C
:100FC000E002002080B400AF024B1B681846BD460B
:100FD00080BC7047E002002080B584B000AF78602C
:100FE000FFF7F0FFB8607B68FB60FB68B3F1FF3F81
:100FF00005D00A4B1B781A46FB681344FB6000BF00
:10100000FFF7E0FF0246BB68D31AFA689A42F7D8A6
:1010100000BF00BF1037BD4680BD00BF600000208C
:1010200080B588B000AF78607B68002B01D10123C8
:10103000CAE3974B9B6803F00C03BB61944BDB68DE
:1010400003F003037B617B681B6803F01003002B34
:1010500000F0E480BB69002B07D0BB690C2B40F08B
:101060008B807B69012B40F08780894B1B6803F0E4
:101070000203002B05D07B689B69002B01D1012363
:10108000A2E37B681A6A824B1B6803F00803002BFB
:1010900004D07F4B1B6803F0F00305E07C4BD3F8D2
:1010A00094301B0903F0F003934223D27B681B6A40
:1010B000184600F051FD0346002B01D0012383E3C5
:1010C000734B1B68724A43F008031360704B1B6834
:1010D00023F0F0027B681B6A6D4913430B606C4B75
:1010E0005B6823F47F427B68DB691B02684913431A
:1010F0004B6025E0664B1B68654A43F008031360AC
:10110000634B1B6823F0F0027B681B6A6049134342
:101110000B605F4B5B6823F47F427B68DB691B02DB
:101120005B4913434B60BB69002B09D17B681B6A89
:10113000184600F011FD0346002B01D0012343E3C4
:1011400000F04AFC0246524B9B681B0903F00F0358
:101150005049CB5C03F01F0322FA03F34E4A13609D
:101160004E4B1B681846FFF7DFFE0346FB73FB7B05
:10117000002B52D0FB7B27E37B689B69002B32D08E
:10118000434B1B68424A43F001031360FFF71AFF09
:10119000386108E0FFF716FF02463B69D31A022BBD
:1011A00001D9032310E33A4B1B6803F00203002B21
:1011B000F0D0374B1B68364A43F008031360344BBA
:1011C0001B6823F0F0027B681B6A314913430B60F4
:1011D0002F4B5B6823F47F427B68DB691B022C4941
:1011E00013434B601AE02A4B1B68294A23F0010382
:1011F0001360FFF7E7FE386108E0FFF7E3FE024601
:101200003B69D31A022B01D90323DDE2204B1B6873
:1012100003F00203002BF0D100E000BF7B681B68E5
:1012200003F00103002B74D0BB69082B05D0BB6908
:101230000C2B0ED17B69032B0BD1154B1B6803F4D0
:101240000033002B64D07B685B68002B60D10123E6
:10125000BAE27B685B68B3F5803F06D10C4B1B6834
:101260000B4A43F48033136026E07B685B68B3F578
:10127000A02F15D1064B1B68054A43F48023136049
:10128000034B1B68024A43F48033136014E000BF31
:1012900000100240283C0008500000205C000020A4
:1012A000A04B1B689F4A23F4803313609D4B1B683F
:1012B0009C4A23F4802313607B685B68002B13D067
:1012C000FFF780FE386108E0FFF77CFE02463B69CD
:1012D000D31A642B01D9032376E2924B1B6803F4E3
:1012E0000033002BF0D014E0FFF76CFE386108E00B
:1012F000FFF768FE02463B69D31A642B01D903232A
:1013000062E2884B1B6803F40033002BF0D100E04D
:1013100000BF7B681B6803F00203002B60D0BB6931
:10132000042B05D0BB690C2B19D17B69022B16D17C
:101330007C4B1B6803F48063002B05D07B68DB6863
:10134000002B01D101233FE2764B5B6823F0F8527A
:101350007B681B691B06734913434B6040E07B6845
:10136000DB68002B23D06F4B1B686E4A43F48073FD
:101370001360FFF727FE386108E0FFF723FE0246FF
:101380003B69D31A022B01D903231DE2654B1B686D
:1013900003F48063002BF0D0624B5B6823F0F852BB
:1013A0007B681B691B065F4913434B6018E05D4B6C
:1013B0001B685C4A23F480731360FFF703FE3861F7
:1013C00008E0FFF7FFFD02463B69D31A022B01D963
:1013D0000323F9E1534B1B6803F48063002BF0D126
:1013E0007B681B6803F00803002B3CD07B685B69BB
:1013F000002B1CD04B4BD3F894304A4A43F00103E6
:10140000C2F89430FFF7DEFD386108E0FFF7DAFD3F
:1014100002463B69D31A022B01D90323D4E1414B85
:10142000D3F8943003F00203002BEFD01BE03D4BC8
:10143000D3F894303B4A23F00103C2F89430FFF70D
:10144000C1FD386108E0FFF7BDFD02463B69D31AD4
:10145000022B01D90323B7E1324BD3F8943003F0C8
:101460000203002BEFD17B681B6803F00403002B01
:1014700000F0A6800023FB772A4B9B6D03F080537E
:10148000002B0DD1274B9B6D264A43F0805393656B
:10149000244B9B6D03F08053BB60BB680123FB773B
:1014A000214B1B6803F48073002B18D11E4B1B6863
:1014B0001D4A43F480731360FFF784FD386108E030
:1014C000FFF780FD02463B69D31A022B01D90323A3
:1014D0007AE1154B1B6803F48073002BF0D07B6816
:1014E0009B68012B08D10F4BD3F890300D4A43F085
:1014F0000103C2F8903029E07B689B68052B15D169
:10150000084BD3F89030074A43F00403C2F89030F8
:10151000044BD3F89030034A43F00103C2F89030F3
:1015200014E000BF00100240007000409C4BD3F854
:1015300090309B4A23F00103C2F89030984BD3F8C7
:101540009030974A23F00403C2F890307B689B6880
:10155000002B16D0FFF736FD38610AE0FFF732FDA9
:1015600002463B69D31A41F28832934201D90323E0
:101570002AE18B4BD3F8903003F00203002BEDD01F
:1015800015E0FFF71FFD38610AE0FFF71BFD02467B
:101590003B69D31A41F28832934201D9032313E104
:1015A0007F4BD3F8903003F00203002BEDD1FB7F8B
:1015B000012B05D17A4B9B6D794A23F080539365BB
:1015C0007B689B6A002B00F0FE807B689B6A022B85
:1015D00040F0D080724BDB687B617B6903F00302D3
:1015E0007B68DB6A9A4230D17B6903F070027B68CA
:1015F0001B6B013B1B019A4227D17B6903F4FE421E
:101600007B685B6B1B029A421FD17B6903F400333A
:101610007A68926B072A14BF01220022D2B2934249
:1016200013D17B6903F4C0027B68DB6B5B08013B71
:101630005B059A4209D17B6903F0C0627B681B6C31
:101640005B08013B5B069A426ED0BB690C2B69D0EC
:10165000534B1B6803F08063002B05D1504B1B6874
:1016600003F08053002B01D00123ADE04C4B1B68ED
:101670004B4A23F080731360FFF7A4FC386108E045
:10168000FFF7A0FC02463B69D31A022B01D90323C2
:101690009AE0434B1B6803F00073002BF0D1404BE2
:1016A000DA68404B13407A68D16A7A68126B013A63
:1016B000120111437A68526B120211437A68D26B9D
:1016C0005208013A520511437A68126C5208013AE5
:1016D000520611437A68926B120952040A43304948
:1016E0001343CB602E4B1B682D4A43F0807313606D
:1016F0002B4BDB682A4A43F08073D360FFF762FC10
:10170000386108E0FFF75EFC02463B69D31A022B02
:1017100001D9032358E0224B1B6803F00073002B10
:10172000F0D050E001234FE01D4B1B6803F0007325
:10173000002B48D11A4B1B68194A43F08073136081
:10174000174BDB68164A43F08073D360FFF73AFC0F
:10175000386108E0FFF736FC02463B69D31A022BDA
:1017600001D9032330E00E4B1B6803F00073002BFC
:10177000F0D028E0BB690C2B23D0094B1B68084A2A
:1017800023F080731360FFF71DFC38610CE0FFF756
:1017900019FC02463B69D31A022B05D9032313E037
:1017A000001002408C809DF9094B1B6803F0007308
:1017B000002BECD1064BDA680549064B1340CB6091
:1017C00001E0012300E0002318462037BD4680BD1C
:1017D00000100240FCFFEEFE80B584B000AF7860E0
:1017E00039607B68002B01D10123E7E0754B1B6852
:1017F00003F007033A689A4210D9724B1B6823F032
:10180000070270493B6813430B606E4B1B6803F083
:1018100007033A689A4201D00123CFE07B681B6836
:1018200003F00203002B10D07B689A68664B9B681C
:1018300003F0F0039A4208D9634B9B6823F0F0024F
:101840007B689B68604913438B607B681B6803F06F
:101850000103002B4CD07B685B68032B07D15A4BEC
:101860001B6803F00073002B21D10123A6E07B68E5
:101870005B68022B07D1544B1B6803F40033002B29
:1018800015D101239AE07B685B68002B07D14E4B92
:101890001B6803F00203002B09D101238EE04A4BA1
:1018A0001B6803F48063002B01D1012386E0464BC3
:1018B0009B6823F003027B685B68434913438B609A
:1018C000FFF780FBF8600AE0FFF77CFB0246FB684D
:1018D000D31A41F28832934201D903236EE03A4B86
:1018E0009B6803F00C027B685B689B009A42EBD11B
:1018F0007B681B6803F00203002B10D07B689A689A
:10190000314B9B6803F0F0039A4208D22E4B9B6840
:1019100023F0F0027B689B682B4913438B60294BB3
:101920001B6803F007033A689A4210D2254B1B68E4
:1019300023F0070223493B6813430B60214B1B68CC
:1019400003F007033A689A4201D0012336E07B682E
:101950001B6803F00403002B08D01B4B9B6823F487
:10196000E0627B68DB68184913438B607B681B6807
:1019700003F00803002B09D0134B9B6823F460523B
:101980007B681B69DB00104913438B6000F024F86F
:1019900002460D4B9B681B0903F00F030B49CB5C00
:1019A00003F01F0322FA03F3094A1360094B1B6873
:1019B0001846FFF7B9FA0346FB72FB7A1846103750
:1019C000BD4680BD0020024000100240283C0008B7
:1019D000500000205C00002080B489B000AF0023DC
:1019E000FB610023BB613D4B9B6803F00C033B6133
:1019F0003A4BDB6803F00303FB603B69002B05D027
:101A00003B690C2B21D1FB68012B1ED1334B1B688A
:101A100003F00803002B07D1304BD3F894301B0A96
:101A200003F00F03FB6105E02C4B1B681B0903F05F
:101A30000F03FB612A4AFB6952F82330FB613B69C3
:101A4000002B0DD1FB69BB610AE03B69042B02D17D
:101A5000244BBB6104E03B69082B01D1224BBB61E5
:101A60003B690C2B34D11D4BDB6803F00303BB60D7
:101A7000BB68022B03D0BB68032B03D005E0194BD6
:101A80007B6105E0184B7B6102E0FB697B6100BF75
:101A9000124BDB681B0903F0070301337B600F4B1C
:101AA000DB681B0A03F07F037A6903FB02F27B68A1
:101AB000B2FBF3F37B61094BDB685B0E03F00303BE
:101AC00001335B003B607A693B68B2FBF3F3BB61B7
:101AD000BB6918462437BD4680BC704700100240E1
:101AE000403C00080024F40000127A0080B400AFEB
:101AF000024B1B681846BD4680BC70475000002052
:101B000080B500AFFFF7F2FF0246064B9B681B0A49
:101B100003F007030449CB5C03F01F0322FA03F32D
:101B2000184680BD00100240383C000880B500AF68
:101B3000FFF7DCFF0246064B9B68DB0A03F0070356
:101B40000449CB5C03F01F0322FA03F3184680BD5F
:101B500000100240383C000880B586B000AF7860C5
:101B600000233B612A4B9B6D03F08053002B03D075
:101B700000F036FA786114E0254B9B6D244A43F05F
:101B800080539365224B9B6D03F08053FB60FB6891
:101B900000F026FA78611E4B9B6D1D4A23F080539E
:101BA00093657B69B3F5007F0BD17B68802B19D9D6
:101BB0007B68A02B02D902233B6113E001233B6128
:101BC00010E07B68802B02D903233B610AE07B682D
:101BD000802B02D102233B6104E07B68702B01D192
:101BE00001233B610B4B1B6823F0070209493B694A
:101BF00013430B60074B1B6803F007033A699A42D3
:101C000001D0012300E0002318461837BD4680BDEF
:101C1000001002400020024080B487B000AF78601E
:101C2000396000237B617FE13B681A6801217B6991
:101C300001FA03F31340FB60FB68002B00F0718195
:101C40003B685B6803F00303012B05D03B685B68CE
:101C500003F00303022B30D17B689B683B617B69F7
:101C60005B00032202FA03F3DB433A6913403B6152
:101C70003B68DA687B695B0002FA03F33A69134355
:101C80003B617B683A699A607B685B683B610122D3
:101C90007B6902FA03F3DB433A6913403B613B681B
:101CA0005B681B0903F001027B6902FA03F33A69DE
:101CB00013433B617B683A695A603B685B6803F099
:101CC0000303032B18D17B68DB6A3B6101227B692C
:101CD00002FA03F3DB433A6913403B613B685B68FC
:101CE000DB0803F001027B6902FA03F33A6913434C
:101CF0003B617B683A69DA623B685B6803F0030327
:101D0000032B17D07B68DB683B617B695B00032298
:101D100002FA03F3DB433A6913403B613B689A687C
:101D20007B695B0002FA03F33A6913433B617B680A
:101D30003A69DA603B685B6803F00303022B23D146
:101D40007B69DA087B68083253F822303B617B6993
:101D500003F007039B000F2202FA03F3DB433A6907
:101D600013403B613B681A697B6903F007039B00E2
:101D700002FA03F33A6913433B617B69DA087B6833
:101D80000832396943F822107B681B683B617B6924
:101D90005B00032202FA03F3DB433A6913403B6121
:101DA0003B685B6803F003027B695B0002FA03F3A4
:101DB0003A6913433B617B683A691A603B685B6828
:101DC00003F44033002B00F0AC805E4B1B6E5D4A89
:101DD00043F0010313665B4B1B6E03F00103BB6012
:101DE000BB68594A7B699B08023352F823303B6138
:101DF0007B6903F003039B000F2202FA03F3DB432A
:101E00003A6913403B617B68B3F1904F25D07B6802
:101E10004E4A93421FD07B684D4A934219D07B684B
:101E20004C4A934213D07B684B4A93420DD07B6857
:101E30004A4A934207D07B68494A934201D106231C
:101E40000CE007230AE0052308E0042306E003234F
:101E500004E0022302E0012300E000237A6902F09B
:101E60000302920093403A6913433B6136497B6910
:101E70009B0802333A6941F823203A4B9B683B6147
:101E8000FB68DB433A6913403B613B685B6803F4E2
:101E90008013002B03D03A69FB6813433B61314A3E
:101EA0003B6993602F4BDB683B61FB68DB433A691E
:101EB00013403B613B685B6803F40013002B03D0C5
:101EC0003A69FB6813433B61264A3B69D360254B63
:101ED0005B683B61FB68DB433A6913403B613B68ED
:101EE0005B6803F40033002B03D03A69FB681343AB
:101EF0003B611C4A3B6953601A4B1B683B61FB68A2
:101F0000DB433A6913403B613B685B6803F4803311
:101F1000002B03D03A69FB6813433B61114A3B69CC
:101F200013607B6901337B613B681A687B6922FA25
:101F300003F3002B7FF478AE00BF00BF1C37BD4613
:101F400080BC7047001002400000014000040048BF
:101F500000080048000C0048001000480014004829
:101F6000001800480004014080B485B000AF7860DC
:101F70000B467B807B685B69FB607A88FB6813405B
:101F80001A04FB68D9437B880B401A437B689A612B
:101F900000BF1437BD4680BC7047000080B582B0DA
:101FA00000AF0346FB80084B5A69FB881340002BA7
:101FB00006D0054AFB885361FB88184600F006F8F6
:101FC00000BF0837BD4680BD0004014080B483B027
:101FD00000AF0346FB8000BF0C37BD4680BC704796
:101FE00080B400AF034B1B6803F4C0631846BD46C2
:101FF00080BC70470070004080B485B000AF78604E
:102000007B68B3F5007F30D1224B1B6803F4C063BB
:10201000B3F5007F38D01F4B1B6823F4C0631D4A03
:1020200043F4007313601C4B1B68322202FB03F362
:102030001A4AA2FB03239B0C0133FB6002E0FB68FE
:10204000013BFB60134B5B6903F48063B3F5806F66
:1020500002D1FB68002BF2D10E4B5B6903F4806365
:10206000B3F5806F10D103230FE00A4B1B6803F414
:10207000C063B3F5806F07D0064B1B6823F4C063C1
:10208000044A43F480631360002318461437BD46A6
:1020900080BC7047007000405000002083DE1B436E
:1020A00080B485B000AF78607B6803F00703FB6005
:1020B0000C4BDB68BB60BA684FF6FF031340BB6094
:1020C000FB681A02BB68134343F0BF6343F4003359
:1020D000BB60044ABB68D36000BF1437BD4680BCF8
:1020E000704700BF00ED00E080B400AF044BDB6838
:1020F0001B0A03F007031846BD4680BC704700BFAB
:1021000000ED00E080B483B000AF0346FB7197F9A7
:102110000730002B0BDBFB7903F01F02064997F910
:1021200007305B09012000FA02F241F8232000BFCA
:102130000C37BD4680BC704700E100E080B483B03E
:1021400000AF03463960FB7197F90730002B0ADBBB
:102150003B68DAB20C4997F907301201D2B20B444E
:1021600083F800230AE03B68DAB20849FB7903F000
:102170000F03043B1201D2B20B441A7600BF0C3796
:10218000BD4680BC704700BF00E100E000ED00E00C
:1021900080B489B000AFF860B9607A60FB6803F082
:1021A00007037B617B69033B042B04D87B69C3F184
:1021B0000703FB6101E00423FB617B690433062B09
:1021C00003D97B69033BBB6101E00023BB614FF096
:1021D000FF32FB6902FA03F3DA43BB681A40BB69BA
:1021E0009A404FF0FF31BB6901FA03F3D9437B6892
:1021F0000B40134318462437BD4680BC704700008F
:1022000080B582B000AF78607B68013BB3F1807F1E
:1022100001D301230FE00A4A7B68013B53600F2181
:102220004FF0FF30FFF78AFF054B00229A60044B06
:1022300007221A60002318460837BD4680BD00BF3C
:1022400010E000E080B582B000AF78607868FFF7FA
:1022500027FF00BF0837BD4680BD80B586B000AF00
:102260000346B9607A60FB7300237B61FFF73CFF94
:1022700078617A68B9687869FFF78AFF024697F94A
:102280000F3011461846FFF759FF00BF1837BD46FB
:1022900080BD80B582B000AF0346FB7197F907306F
:1022A0001846FFF72FFF00BF0837BD4680BD80B539
:1022B00082B000AF78607868FFF7A2FF0346184647
:1022C0000837BD4680BD80B582B000AF78607B68BE
:1022D000002B01D1012340E07B68DB6F002B06D18E
:1022E0007B68002283F87820786800F03AF87B68F1
:1022F0002422DA677B681B681A687B681B6822F0F7
:1023000001021A607B685B6A002B02D0786800F0DB
:1023100021FC786800F092F90346012B01D10123DA
:102320001BE07B681B685A687B681B6822F490423C
:102330005A607B681B689A687B681B6822F02A02D7
:102340009A607B681B681A687B681B6842F0010210
:102350001A60786800F09FFC034618460837BD46AF
:1023600080BD80B483B000AF786000BF0C37BD463D
:1023700080BC704780B58AB002AFF860B9603B603E
:102380001346FB80FB68DB6F202B40F08180BB682D
:10239000002B02D0FB88002B01D1012379E0FB68E0
:1023A0000022C3F88420FB682122DA67FEF70AFEC8
:1023B0007861FB68FA88A3F85020FB68FA88A3F8D4
:1023C0005220FB689B68B3F5805F08D1FB681B69EE
:1023D000002B04D10023FB61BB68BB6103E0BB6839
:1023E000FB610023BB6138E03B6800937B690022FE
:1023F0008021F86800F0F7FC0346002B04D0FB684E
:102400002022DA67032344E0FB69002B0BD1BB6970
:102410001B881A46FB681B68C2F308029A62BB69F4
:102420000233BB6107E0FB691A78FB681B689A629C
:10243000FB690133FB61FB68DB6F03F02103212B98
:1024400009D1FB68B3F852309BB2013B9AB2FB68EA
:10245000A3F8522001E001231BE0FB68B3F85230DF
:102460009BB2002BC0D13B6800937B6900224021C6
:10247000F86800F0B8FC0346002B04D0FB6820226B
:10248000DA67032305E0FB682022DA67002300E017
:10249000022318462037BD4680BD80B58AB002AF02
:1024A000F860B9603B601346FB80FB68D3F880306E
:1024B000202B40F0BD80BB68002B02D0FB88002B96
:1024C00001D10123B5E0FB680022C3F88420FB683A
:1024D0002222C3F88020FB6800221A66FEF772FDF4
:1024E0007861FB68FA88A3F85820FB68FA88A3F89B
:1024F0005A20FB689B68B3F5805F0ED1FB681B69AF
:10250000002B05D1FB6840F2FF12A3F85C202DE000
:10251000FB68FF22A3F85C2028E0FB689B68002B87
:102520000DD1FB681B69002B04D1FB68FF22A3F8C7
:102530005C201BE0FB687F22A3F85C2016E0FB68B0
:102540009B68B3F1805F0DD1FB681B69002B04D140
:10255000FB687F22A3F85C2008E0FB683F22A3F819
:102560005C2003E0FB680022A3F85C20FB68B3F862
:102570005C307B82FB689B68B3F5805F08D1FB68A9
:102580001B69002B04D10023FB61BB68BB6103E026
:10259000BB68FB610023BB613EE03B6800937B6945
:1025A00000222021F86800F01EFC0346002B05D015
:1025B000FB682022C3F8802003233AE0FB69002B4C
:1025C0000CD1FB681B685B6A9AB27B8A13409AB293
:1025D000BB691A80BB690233BB610CE0FB681B68F6
:1025E0005B6ADAB27B8ADBB21340DAB2FB691A703B
:1025F000FB690133FB61FB68D3F88030222B09D1E2
:10260000FB68B3F85A309BB2013B9AB2FB68A3F85F
:102610005A2001E001230CE0FB68B3F85A309BB26A
:10262000002BBAD1FB682022C3F88020002300E0F1
:10263000022318462037BD4680BD00002DE9B04F6B
:102640008AB000AFF860002387F82230FB689A68F0
:10265000FB681B691A43FB685B691A43FB68DB690B
:1026600013437B62FB681B681A689A4B1340FA6835
:102670001268796A0B431360FB681B685B6823F47C
:102680004051FB68DA68FB681B680A435A60FB68C4
:102690009B697B62FB681B688F4A934204D0FB688E
:1026A0001B6A7A6A13437B62FB681B689B6823F48E
:1026B0003061FB681B687A6A0A439A60FB681B6892
:1026C000864A934225D1864BD3F8883003F0030322
:1026D000032B16D0032B18D8022B0AD0022B14D8A8
:1026E000002B02D0012B08D00FE0012387F8233004
:1026F00003E1022387F82330FFE0042387F8233027
:10270000FBE0082387F82330F7E0102387F8233015
:10271000F3E0FB681B68734A934225D1704BD3F8F2
:10272000883003F00C030C2B16D00C2B18D8082B78
:102730000AD0082B14D8002B02D0042B08D00FE0AD
:10274000002387F82330D8E0022387F82330D4E031
:10275000042387F82330D0E0082387F82330CCE027
:10276000102387F82330C8E0FB681B685E4A934259
:1027700025D15B4BD3F8883003F03003302B16D0D3
:10278000302B18D8202B0AD0202B14D8002B02D0A5
:10279000102B08D00FE0002387F82330ADE0022390
:1027A00087F82330A9E0042387F82330A5E0082325
:1027B00087F82330A1E0102387F823309DE0FB68E1
:1027C0001B684A4A934225D1454BD3F8883003F021
:1027D000C003C02B16D0C02B18D8802B0AD0802B5A
:1027E00014D8002B02D0402B08D00FE0002387F82C
:1027F000233082E0022387F823307EE0042387F829
:1028000023307AE0082387F8233076E0102387F816
:10281000233072E0FB681B68354A93422AD1304B63
:10282000D3F8883003F44073B3F5407F1AD0B3F582
:10283000407F1BD8B3F5007F0CD0B3F5007F15D8CF
:10284000002B03D0B3F5807F08D00FE0002387F87A
:10285000233052E0022387F823304EE0042387F828
:1028600023304AE0082387F8233046E0102387F816
:10287000233042E0FB681B68174A93423AD1184B59
:10288000D3F8883003F44063B3F5406F1AD0B3F542
:10289000406F1BD8B3F5006F0CD0B3F5006F15D89F
:1028A000002B03D0B3F5806F08D00FE0002387F82A
:1028B000233022E0022387F823301EE0042387F828
:1028C00023301AE0082387F8233016E0102387F816
:1028D000233012E0F369FFEF008000400038014030
:1028E000001002400044004000480040004C0040FE
:1028F00000500040102387F82330FB681B68934A80
:1029000093426FD197F82330082B15D0082B17DC92
:10291000042B0DD0042B13DC002B02D0022B04D08F
:102920000EE0FFF7EDF8F86110E0894BFB610DE078
:10293000FFF752F8F86109E04FF40043FB6105E04E
:102940000023FB61012387F8223000BFFB69002BC5
:1029500000F0EE80FB685A6813465B001344FA6986
:102960009A4205D3FB685B681B03FA699A4203D954
:10297000012387F82230DBE0FB6900221C46154664
:102980004FF000024FF000032B0243EA14632202CF
:10299000F9684968490800208846814612EB080A10
:1029A00043EB090BFB685B6800223B607A60D7E968
:1029B000002350465946FDF7EBFB02460B461346F3
:1029C000BB61BB69B3F5407F08D3BB69B3F5801F1A
:1029D00004D2FB681B68BA69DA60A9E0012387F8B2
:1029E0002230A5E0FB68DB69B3F5004F57D197F8BB
:1029F0002330082B1DD0082B1FDC042B15D0042BF3
:102A00001BDC022B0ED0022B17DC002B02D0012B7B
:102A100004D012E0FFF774F8F86114E0FFF786F8CD
:102A2000F86110E04A4BFB610DE0FEF7D5FFF8615D
:102A300009E04FF40043FB6105E00023FB61012343
:102A400087F8223000BFFB69002B71D0FB695A0068
:102A5000FB685B685B081A44FB685B68B2FBF3F3D6
:102A6000BB61BB690F2B16D9BB69B3F5803F12D28E
:102A7000BB699BB223F00F03FB82BB695B089BB26F
:102A800003F007039AB2FB8A1343FB82FB681B68BF
:102A9000FA8ADA604CE0012387F8223048E097F8A0
:102AA0002330082B1DD0082B1FDC042B15D0042B42
:102AB0001BDC022B0ED0022B17DC002B02D0012BCB
:102AC00004D012E0FFF71CF8F86114E0FFF72EF8CD
:102AD000F86110E01E4BFB610DE0FEF77DFFF86131
:102AE00009E04FF40043FB6105E00023FB61012393
:102AF00087F8223000BFFB69002B19D0FB685B68A8
:102B00005A08FB691A44FB685B68B2FBF3F3BB61CC
:102B1000BB690F2B09D9BB69B3F5803F05D2BB69EF
:102B20009AB2FB681B68DA6002E0012387F8223062
:102B3000FB6800229A66FB680022DA6697F822306A
:102B400018462837BD46BDE8B08F00BF0080004062
:102B50000024F40080B483B000AF78607B685B6AC7
:102B600003F00803002B0AD07B681B685B6823F422
:102B700000417B685A6B7B681B680A435A607B681C
:102B80005B6A03F00103002B0AD07B681B685B685B
:102B900023F400317B689A6A7B681B680A435A6099
:102BA0007B685B6A03F00203002B0AD07B681B681A
:102BB0005B6823F480317B68DA6A7B681B680A43B0
:102BC0005A607B685B6A03F00403002B0AD07B68C1
:102BD0001B685B6823F480217B681A6B7B681B6829
:102BE0000A435A607B685B6A03F01003002B0AD02B
:102BF0007B681B689B6823F480517B689A6B7B68B9
:102C00001B680A439A607B685B6A03F02003002B11
:102C10000AD07B681B689B6823F400517B68DA6BE1
:102C20007B681B680A439A607B685B6A03F0400319
:102C3000002B1AD07B681B685B6823F480117B68CB
:102C40001A6C7B681B680A435A607B681B6CB3F57F
:102C5000801F0AD17B681B685B6823F4C0017B6816
:102C60005A6C7B681B680A435A607B685B6A03F096
:102C70008003002B0AD07B681B685B6823F400216B
:102C80007B689A6C7B681B680A435A6000BF0C37EC
:102C9000BD4680BC704780B598B002AF78607B6855
:102CA0000022C3F88420FEF78DF978657B681B68E5
:102CB0001B6803F00803082B2ED16FF07E430093AE
:102CC0007B6D00224FF40011786800F08CF8034609
:102CD000002B21D07B681B68BB63BB6B53E8003FB4
:102CE0007B637B6B23F080033B657B681B681A4624
:102CF0003B6D7B643A64396C7A6C41E80023FB637A
:102D0000FB6B002BE6D17B682022DA677B68002210
:102D100083F87820032362E07B681B681B6803F05C
:102D20000403042B49D16FF07E4300937B6D002296
:102D30004FF48001786800F056F80346002B3CD031
:102D40007B681B687B627B6A53E8003F3B623B6A9F
:102D500023F49073FB647B681B681A46FB6C3B632F
:102D6000FA62F96A3A6B41E80023BB62BB6A002B46
:102D7000E6D17B681B6808333B613B6953E8003F41
:102D8000FB60FB6823F00103BB647B681B680833AE
:102D9000BA6CFA61BB61B969FA6941E800237B61E9
:102DA0007B69002BE5D17B682022C3F880207B68FB
:102DB000002283F87820032311E07B682022DA6761
:102DC0007B682022C3F880207B6800221A667B681B
:102DD00000225A667B68002283F878200023184678
:102DE0005837BD4680BD80B584B000AFF860B9608B
:102DF0003B601346FB714FE0BB69B3F1FF3F4BD023
:102E0000FEF7E0F802463B68D31ABA699A4202D349
:102E1000BB69002B01D103234EE0FB681B681B68D4
:102E200003F00403002B37D0BB68802B34D0BB6881
:102E3000402B31D0FB681B68DB6903F00803082BCB
:102E400010D1FB681B6808221A62F86800F038F895
:102E5000FB680822C3F88420FB68002283F87820EE
:102E6000012329E0FB681B68DB6903F40063B3F509
:102E7000006F11D1FB681B684FF400621A62F8689A
:102E800000F01EF8FB682022C3F88420FB680022B3
:102E900083F8782003230FE0FB681B68DA69BB68BE
:102EA0001340BA689A420CBF01230023DBB21A46D2
:102EB000FB799A42A0D0002318461037BD4680BD4A
:102EC00080B495B000AF78607B681B687B637B6BD8
:102ED00053E8003F3B633B6B23F49073FB647B68D8
:102EE0001B681A46FB6C3B64FA63F96B3A6C41E869
:102EF0000023BB63BB6B002BE6D17B681B680833E8
:102F00003B623B6A53E8003FFB61FB6923F001032E
:102F1000BB647B681B680833BA6CFA62BB62B96A2F
:102F2000FA6A41E800237B627B6A002BE5D17B686B
:102F30001B6E012B18D17B681B68FB60FB6853E894
:102F4000003FBB60BB6823F010037B647B681B6899
:102F50001A467B6CBB617A617969BA6941E80023E2
:102F60003B613B69002BE6D17B682022C3F88020BF
:102F70007B6800221A667B6800229A6600BF54377D
:102F8000BD4680BC70470000DFF834D0FDF7F0FE8E
:102F90000C480D490D4A002302E0D458C4500433B4
:102FA000C4188C42F9D30A4A0A4C002301E013608A
:102FB0000432A242FBD3FDF7B9F9FDF7CDFCFEE7E1
:102FC000008001200000002068000020C03C0008B4
:102FD00068000020E8020020FEE700002DE9F0472D
:102FE00082B00646DDF828E00846B4460D46002BC0
:102FF0004ED18A4214466DD9B2FA82F242B1C2F180
:103000002003954026FA03F394401D4306FA02FC80
:10301000260CA7B2B5FBF6F14FEA1C4306FB11558F
:1030200043EA054301FB07F0984209D9E31801F18F
:10303000FF3580F00381984240F200810239234439
:103040001B1A1FFA8CFCB3FBF6F006FB10334CEA9C
:10305000034C00FB07F363450AD914EB0C0C00F199
:10306000FF3580F0ED80634540F2EA80A4440238E9
:1030700040EA0140ACEB030C0021BEF1000F04D08C
:103080002CFA02F30022CEE9003202B0BDE8F0874C
:103090008B4209D9BEF1000F01D0CEE900610021B9
:1030A000084602B0BDE8F087B3FA83F1174600295D
:1030B0004DD1834202D3B24200F20F81B6EB070C2E
:1030C00060EB030301201D46BEF1000FDDD0CEE909
:1030D00000C5DAE7002A00F098801A46B4FA84F3B3
:1030E000002B40F0AF800B1B270CA6B20121B3FBD5
:1030F000F7F54FEA1C4007FB153340EA034306FB94
:1031000005F8984507D9E31805F1FF3002D2984534
:1031100000F2E8800546A3EB08031FFA8CFCB3FB22
:10312000F7F007FB10334CEA034C06FB00F3634552
:1031300008D914EB0C0C00F1FF3602D2634500F203
:10314000CE803046ACEB030C40EA054095E7C1F178
:1031500020058B4022FA05FC4CEA030C00FA01F42E
:1031600026FA05F3E84002FA01F943EA04084FEAB7
:103170001C4206FA01FAB0FBF2F71FFA8CF602FBCA
:1031800017004FEA184444EA004407FB06F0A04247
:103190000AD91CEB040407F1FF3380F09C80A042A5
:1031A00040F29980023F6444241A1FFA88F3B4FB6A
:1031B000F2F002FB104443EA044300FB06F69E4291
:1031C00009D91CEB030300F1FF3480F082809E429A
:1031D0007FD90238634440EA0740A0FB09749B1B77
:1031E000A3423E46A04664D361D0BEF1000F0AD090
:1031F000BAEB060263EB080303FA05F5CA40154370
:10320000CB40CEE9005300213FE7730843EAC17386
:103210004A08190C41EA02414FEAC67C9BB2B2FB54
:10322000F4F02646A04627461F2243EA0143B1FB9D
:10323000F4F1A3EB080341EA004158E72946FFE611
:10324000284615E71A46C3F120019C4026FA01F3EF
:1032500020FA01F190400343270C06FA02FCB1FB6F
:10326000F7F0A6B207FB1015190C41EA054100FB67
:1032700006F58D423BD9611801D28D4220D8491BF9
:103280000138B1FBF7F5019505FB06F8019D9BB2EE
:1032900007FB151143EA0143434526D2E31805F124
:1032A000FF31C6D24345C4D2A91E2344C1E7BA4563
:1032B0009BD2B7EB090664EB0C040138A04694E7F7
:1032C000651B29440238B1FBF7F5019505FB06F8AB
:1032D000DCE720467FE71F4666E70846F4E6A4449D
:1032E00002382FE7023D234415E70199A1E7491B66
:1032F000B1FBF7F5019505FB06F8C7E70CB430B54F
:10330000154B0C1E1D689DB008DA8B232B604FF007
:10331000FF301DB0BDE8304002B070474FF00003F1
:103320001B9318BF0123E31A049307930B4B0290DE
:1033300006900593209A21AB02A92846019300F03C
:1033400091F8431CBCBF8B232B60002CE1D0029B67
:1033500000221A70DDE700BF000000200802FFFF16
:103360000EB410B59DB01FAB029006906FF00041F7
:103370000A48079104910A4953F8042B0591002447
:1033800002A9006801931B9400F06CF8029B1C706A
:103390001DB0BDE8104003B0704700BF0000002022
:1033A0000802FFFF2DE9F0478E681F46BE428246A5
:1033B0000C469046334653D8B1F90C0010F4906F88
:1033C0002BD065692368096905EB4505A3EB010965
:1033D00005EBD5757B1C6D104B44AB422A4684BF70
:1033E0001D462A46430527D511465046FCF7E6FF01
:1033F000064658B321694A4600F013FBA38923F41B
:10340000906343F08003A381266165614E44A5EB80
:1034100009052660A5603E463B461F4620683A46A1
:10342000414600F0E5FAA3689B1BA36023683B4478
:1034300023600020BDE8F087504600F0ABFA064656
:103440000028E1D121695046FDF750F80C23CAF855
:103450000030A38943F04003A3814FF0FF30E9E738
:103460003E46DBE72DE9F0471F468B891B069CB0E3
:1034700006460D46144610D50B6973B94021FCF77A
:103480009DFF2860286130B90C2333604FF0FF3076
:103490001CB0BDE8F08740236B6100230993202313
:1034A0008DF8293003973023654F8DF82A304FF07F
:1034B000010823461A7899461AB1252A03F1010317
:1034C000F8D1B9EB040A0BD05346224629463046C0
:1034D000FFF768FF013000F0A380099A5244099277
:1034E00099F80030002B00F09B8000224FF0FF3352
:1034F000CDE9053209F10109049207928DF85320B4
:103500001A924C46052214F8011B4D48FCF770FE38
:10351000049AD0B9D00644BF20238DF85330110748
:1035200044BF2B238DF8533099F800302A2B13D049
:1035300007994B4600204FF00A0C1A78303A092AB6
:103540001C464AD9A8B1079113E0C01B08FA00F045
:1035500010430490A146D4E7039B191D1B680391F7
:10356000002BBBBF5B4242F0020207930793B8BF38
:10357000049223782E2B0AD163782A2B32D1039B15
:103580001A1D1B68039243EAE37302340593DFF8C4
:10359000C090217803224846FCF72AFE38B1049BEC
:1035A000A0EB0900402282401343013404932178A8
:1035B00024488DF828100622FCF71AFE002835D082
:1035C000214818BB039B073323F0070308330393F9
:1035D000099B0344013409936BE701330CFB012180
:1035E0000120AAE700230593611C18464FF00A0C3E
:1035F0000A78303A092A0C4603D9002BC7D0059027
:10360000C5E701310CFB00200123F1E703AB009378
:103610002A460E4B04A93046AFF30080421CD7D196
:10362000AB895B063FF532AF099831E703AB0093F6
:103630002A46064B04A9304600F082F8EEE700BFA8
:10364000703C00087A3C000800000000A533000828
:10365000763C00082DE9F047914698468A680B6948
:10366000089E9342B8BF1346C9F8003091F8432032
:1036700007460C4612B10133C9F800302368990699
:1036800042BFD9F800300233C9F80030256815F080
:10369000060507D104F1190AE368D9F800209B1A3E
:1036A000AB4229DC94F843302268003B18BF012369
:1036B00092062ED404F1430241463846B047013009
:1036C00021D02368A168226903F00603042B01BFFF
:1036D000E568D9F80030ED1A25EAE57518BF002530
:1036E0008B1A2B449142C8BF1D464FF000091A3473
:1036F0004D451AD1002008E0012352464146384684
:10370000B047013003D14FF0FF30BDE8F0870135FD
:10371000C2E7E1185A1C302081F84300224494F893
:10372000451082F843100233C4E701232246414684
:103730003846B0470130E6D009F10109D8E700006A
:103740002DE9F04398460B7E85B0782B1746064648
:103750000C9A0C4609D8622B01F1430108D8002BC2
:1037600000F0DC80582B00F0BD8004F1420539E008
:10377000A3F163001528F8D801A555F820F000BF83
:10378000D9370008ED3700086B3700086B370008A1
:103790006B3700086B370008ED3700086B370008FF
:1037A0006B3700086B3700086B370008FD380008DE
:1037B00019380008AB3800086B3700086B37000871
:1037C000253900086B370008193800086B370008E6
:1037D0006B370008B33800081368191D1B681160A7
:1037E00004F1420584F842300123A8E013682568FB
:1037F000181D1060280601D51B6803E06A06FBD57A
:10380000B3F90030002B03DA2D225B4284F8432009
:10381000DFF878C10A2213E02568106815F0800FE0
:1038200050F8043B02D16D0648BF9BB21060227E67
:10383000DFF858C16F2A5DD10822002084F84300C8
:103840006568A560002D05DB20681D4320F004009D
:10385000206051D00D46B3FBF2F002FB103E9A42BD
:103860001CF80EE005F801ED0346F4D9082A0BD147
:103870002368DA0708D5236962689A42DEBF3023DD
:1038800005F8013C05F1FF35491B2161CDF80080A9
:103890003B4603AA21463046FFF7DCFE013053D1F8
:1038A0004FF0FF3005B0BDE8F083236843F02003FC
:1038B0002360DFF8DCC0782384F845302068156881
:1038C00010F0800F55F8043B03D110F0400F18BFE3
:1038D0009BB21560C50744BF40F02000206023B1B3
:1038E0001022AAE7DFF8A4C0E6E7226822F020024F
:1038F0002260F5E70A22A0E70D46B7E71368D4F87F
:1039000000C060691D1D15601CF0800F1B6801D090
:10391000186003E01CF0400FFAD0188000232361E8
:103920000D46B3E71368191D11601D686268002118
:103930002846FCF75DFC08B1401B606063682361AA
:10394000002384F84330A1E723692A4639463046EC
:10395000C0470130A4D023689B0714D4E068039BC0
:103960009842B8BF18469DE7012304F11902394671
:103970003046C047013093D00135E36803995B1AA4
:10398000AB42F1DCEAE70025F7E700BF813C000825
:10399000923C00082DE9F041074615460C4621B936
:1039A000BDE8F0411146FCF709BD2AB9FCF79EFDC0
:1039B0002C462046BDE8F08100F041F885420646DD
:1039C00002D8B5EB500FF4D829463846FCF7F6FC80
:1039D000804608B94446ECE7B5422A46214628BF4E
:1039E000324600F01EF821463846FCF77FFDF1E72D
:1039F000884210B501EB020402D98442234607D85D
:103A0000431EA14207D011F8012B03F8012FF8E75C
:103A10000244824200D110BD13F8011D02F8011DBD
:103A2000F7E70A44914200F1FF3300D1704710B527
:103A300011F8014B03F8014F9142F9D110BD51F833
:103A4000043C181F002BBCBF0B58C0187047000067
:103A5000044A05491368002B08BF0B461844106040
:103A600018467047E4020020E8020020F8B500BFC5
:103A7000F8BC08BC9E467047F8B500BFF8BC08BC4F
:083A80009E46704700000000A3
:103A88000D0A00006F6B000025303258000000005E
:103A9800726164696F5F74785F6F6B0072616469EB
:103AA8006F2074782000000072616E67652D746560
:103AB80073742054583A20626F6F74696E670000FF
:103AC8006D6163207061757365000000524E323479
:103AD800383320616C69766520286D6163207061D8
:103AE800757365202D3E2025732900007379732096
:103AF800676574207665720D0A000000617474654C
:103B08006D707420256C753A20525820746F74615A
:103B18006C6C792073696C656E74202D2063686500
:103B2800636B2054582F52582063726F73736F76EB
:103B3800657220616E64206D6F64756C6520706FAE
:103B480077657200617474656D707420256C753AC0
:103B5800202575207261772062797465733A0000B8
:103B68002025303258000000726164696F20736547
:103B780074206D6F64206C6F7261000072616469FB
:103B88006F2073657420667265712034333335375E
:103B98003530303000000000726164696F20736551
:103BA80074207366207366313200000072616469A4
:103BB8006F20736574207077722031340000000024
:103BC800726164696F20636F6E6669677572656498
:103BD8003A203433332E353735204D487A2C20534C
:103BE8004631322C202B31342064426D202D207434
:103BF80072616E736D697474696E670050494E47DF
:103C080020256C75000000004552524F523A207230
:103C18006164696F207478206661696C656400006E
:103C28000000000000000000010203040607080964
:103C38000000000001020304A0860100400D0300FB
:103C4800801A060000350C0040420F0080841E00D8
:103C580000093D0000127A000024F40000366E01CD
:103C68000048E801006CDC02232D302B2000686C32
:103C78004C00656667454647003031323334353687
:103C880037383941424344454600303132333435C0
:103C980036373839616263646566000000000000E9
:083CA8001CC5FF7F01000000B4
:083CB000F90200080000000009
:083CB800D10200080000000029
:103CC000040000200000000084000020EC00002020
:103CD000540100200000000000000000000000006F
:103CE00000000000000000000000000000000000D4
:103CF00000000000000000000000000000000000C4
:103D000000000000000000000000000000000000B3
:103D100000093D00000000480008004810000000B5
:083D200001000000000000009A
:0400000508002F8937
:00000001FF
