:020000040800F2
:1000000000500020493400088D14000895140008A1
:100010009D140008A5140008AD140008000000009D
:10002000000000000000000000000000B5140008FF
:10003000C114000800000000CD140008D914000805
:10004000913400089134000891340008913400087C
:10005000913400089134000891340008913400086C
:10006000913400089134000891340008913400085C
:10007000913400089134000891340008913400084C
:10008000913400089134000891340008913400083C
:10009000913400089134000891340008913400082C
:1000A000913400089134000891340008913400081C
:1000B000913400089134000891340008913400080C
:1000C00091340008913400089134000891340008FC
:1000D0009134000891340008E514000891340008B8
:1000E000F914000891340008913400080000000061
:1000F0000000000000000000000000000000000000
:0C01000000000000000000005FF808F1A3
:10010C0010F8012B11F8013B012A28BF9A42F7D0B5
:10011C00D01A7047034613F8012B002AFBD1181A8A
:10012C00013870470348044B834202D0034B03B1A0
:10013C00184770475C0000205C00002000000000A5
:10014C000548064B1B1AD90F01EBA301491002D02D
:10015C00034B03B1184770475C0000205C00002083
:10016C000000000010B5064C237843B9FFF7DAFF06
:10017C00044B13B10448AFF300800123237010BD6E
:10018C005C00002000000000003C000808B5054B96
:10019C001BB105490548AFF30080BDE80840FFF7E7
:1001AC00CFBF00BF0000000060000020003C000832
:1001BC0003460244934200D1704703F8011BF9E750
:1001CC0070B500260C4C0D4B1D1BB6EBA50F09D1C1
:1001DC00002603F00FFD0A4C0A4B1D1BB6EBA50FB6
:1001EC0005D170BD54F8043B98470136EDE754F83F
:1001FC00043B98470136F1E7504100085041000894
:10020C0050410008544100087047704737B5002929
:10021C0042D051F8043C0C1F002BB8BFE4180190DD
:10022C0000F0DCF81D4A0198136833B96360146060
:10023C0003B0BDE8304000F0D7B8A34208D9256818
:10024C0061198B4201BF19685B6849192160EDE7A0
:10025C001A465B680BB1A342FAD911685518A5422E
:10026C000BD1246821445418A3421160E0D11C68BE
:10027C005B680C4414605360DAE702D90C2303600A
:10028C00D6E7256861198B4201BF19685B6849196B
:10029C00216063605460CBE703B030BDBC0100202B
:1002AC0070B50F4C0E462168054611B900F0A2F846
:1002BC0020603146284600F09DF8431C03D14FF0D6
:1002CC00FF34204670BDC41C24F00304A042F8D0B7
:1002DC00211A284600F08EF80130F2D1EFE700BF6A
:1002EC00B80100202DE9F843CD1C25F00305083595
:1002FC000C2D38BF0C25002D064601DBA94204D974
:10030C000C2333600020BDE8F883334F00F066F80F
:10031C003B681C463CBB29463046FFF7C1FF431CDB
:10032C00044656D13C68A046B8F1000F40D1002CD1
:10033C0049D023684146304604EB030900F05AF8D3
:10034C00814540D1216830466D1A2946FFF7A8FF38
:10035C00013038D023682B4423603B685A685ABB61
:10036C00C7F800800EE02268521B1ED40B2A16D947
:10037C006119A342256018BF5960636808BF3960D2
:10038C0062514B60304600F02FF804F10B00231D36
:10039C0020F00700C21A1CBF1B1AA350B3E76268F7
:1003AC00A3420CBF3A605A60ECE723466468B1E79D
:1003BC004446D8F80480B7E71A465B68A342FBD1E1
:1003CC0000235360DEE70C233046336000F00CF85A
:1003DC0098E70560D6E700BFBC0100200148FFF795
:1003EC0013BF00BFB40100200148FFF70EBF00BFD0
:1003FC00B401002038B50023054C0546084623609F
:10040C0003F0EAFB431C02D1236803B12B6038BD17
:10041C00B001002080B582B000AF78607868FFF73B
:10042C0079FE03469AB264237968064802F05FF9B4
:10043C00642302220449034802F059F900BF08372B
:10044C00BD4680BDC0010020183C000880B586B0B8
:10045C0000AF07F1080300221A605A609A60DA6054
:10046C002B4B9B692A4A43F004039361284B9B69ED
:10047C0003F004037B607B68254B9B69244A43F49F
:10048C0080439361224B9B6903F480433B603B6840
:10049C004FF40073BB600223FB6003237B6107F105
:1004AC00080319461B4801F049FD4FF48063BB60FB
:1004BC000023FB6000233B6107F108031946154834
:1004CC0001F03CFD144B154A1A60134B4FF461427A
:1004DC005A60114B00229A600F4B0022DA600E4BCF
:1004EC0000221A610C4B0C225A610B4B00229A61B0
:1004FC00094B0022DA61084802F0A9F80346002BE8
:10050C0001D000F0B7FF00BF1837BD4680BD00BF5B
:10051C000010024000080140080200200038014091
:10052C0080B582B000AF00BFF91D3223012205480F
:10053C0002F068F90346002BF6D000BF00BF083765
:10054C00BD4680BD0802002080B588B000AFF860C1
:10055C000B467A607B8101F0B3F8B8610023FB8312
:10056C002CE007F117010A2301221D4802F04AF979
:10057C000346002B1DD1FB7D0D2B1CD0FB7D0A2BC4
:10058C0009D1FB8B002B18D0FB8BFA68134400228B
:10059C001A70002320E0FA8B7B89013B9A420DD222
:1005AC00FB8B5A1CFA831A46FB681344FA7D1A70AB
:1005BC0004E000BF02E000BF00E000BF01F080F8E3
:1005CC000246BB69D31A7A689A42CAD8FB8BFA687E
:1005DC00134400221A70032318462037BD4680BDF1
:1005EC000802002080B584B000AFF860B9603B60B1
:1005FC001346FB80F868FFF78DFD03469AB264231F
:10060C00F9680A4802F073F8642302220849074883
:10061C0002F06DF8FB883A681946B868FFF794FF4A
:10062C00034618461037BD4680BD00BF08020020A7
:10063C00183C000880B58AB000AF786007F108015B
:10064C004FF47A7320227868FFF7CCFF0346002B17
:10065C0008D107F1080309491846FFF751FD034675
:10066C00002B07D00648FFF7D5FE7868FFF7D2FEBF
:10067C0000F000FF00BF2837BD4680BD1C3C0008C1
:10068C00203C000880B59CB000AFF860B960134600
:10069C00FB80544A07F110031068516803C3128998
:1006AC001A8007F11A03462200211846FFF780FD35
:1006BC0007F110031846FFF72DFDB866F868FFF731
:1006CC0029FD7866BB68002B02D0FB88002B01D17A
:1006DC00012382E0BB6800221A707B6E002B05D0D0
:1006EC007B6E5A00BB6E13444F2B07D9FB883E4AD6
:1006FC001946B86802F0C8FE01236EE00023FB66C1
:10070C0026E0FA68FB6E13441B7887F8633097F881
:10071C0063301B09DBB21946FB6E5A00BB6E1344E7
:10072C00324A525C70333B4403F8602C97F86330C8
:10073C0003F00F02FB6E5900BB6E0B4401332B49C7
:10074C008A5C70333B4403F8602CFB6E0133FB6610
:10075C00FA6E7B6E9A42D4D37B6E5A00BB6E1344F6
:10076C0070333B44002203F8602CFA8807F1100028
:10077C004FF47A73B968FFF735FF0346002B07D0A7
:10078C00FB881B4A1946B86802F07EFE032324E05E
:10079C001849B868FFF7B4FC0346002B01D00123BD
:1007AC001BE0FB8842F210721946B868FFF7CCFECA
:1007BC000346002B07D0FB880F4A1946B86802F095
:1007CC0063FE032309E00D49B868FFF799FC034663
:1007DC00002B14BF01230023DBB218467037BD4633
:1007EC0080BD00BF903C0008483C0008C840000891
:1007FC005C3C00081C3C0008703C0008843C000871
:10080C0080B500AF124B00221A70124B00221A70E6
:10081C00114B00221A70114B00221A70104B00223F
:10082C001A70104B00221A7000220121262001F0B0
:10083C00D8FE262001F0F1FE01220B490B4802F0F4
:10084C0078F80346002B01D000F014FE00BF80BDE9
:10085C006C0200206D0200206E0200209A02002023
:10086C009B0200209C02002054020020C0010020AA
:10087C0090B484B000AF78600B467B807B68002B13
:10088C0007D07B88002B04D0274B1B78DBB2002BC6
:10089C0001D1002343E072B600BF244B1B787B735D
:1008AC007B7B234AD35CFB73FB7B9BB27A889A429B
:1008BC0003D87B88DBB2013BFB730023BB7311E0D5
:1008CC007A7BB87BBB7B796819441A4C13469B0026
:1008DC0013449B00234403441B78DBB20B70BB7B9B
:1008EC000133BB73BA7BFB7B9A42E9D3FB7B7A68FF
:1008FC00134400221A700D4B1B78DBB20133DBB2B0
:10090C0003F00103DAB2094B1A70074B1B78DBB208
:10091C00013BDAB2044B1A7062B600BF01231846D1
:10092C001037BD4690BC70479C0200209B020020F3
:10093C00980200207002002080B586B000AF78606D
:10094C0033497868FFF7DCFB0346002B14D03149A0
:10095C007868FFF7D5FB0346002B0DD02E4978683D
:10096C00FFF7CEFB0346002B06D02C497868FFF727
:10097C00C7FB0346002B01D1012345E0082228497F
:10098C00786802F0B3FD0346002B01D000233BE056
:10099C007B680833FB60FB681B78002B01D10023BC
:1009AC0032E00023FB8200233B6126E03B69022BF3
:1009BC000BD8FA683B6913441B782F2B05D9FA68BE
:1009CC003B6913441B78392B01D900231CE0FB8AAB
:1009DC001A46920013445B009BB2F9683A690A44C8
:1009EC00127813449BB2303BFB82FB8A642B01D9F7
:1009FC00002309E03B6901333B61FA683B6913440E
:100A0C001B78002BD2D1012318461837BD4680BD68
:100A1C009C3C0008A43C0008B03C0008B83C000812
:100A2C00DC40000890B585B000AF78607B684E4A1A
:100A3C00934240F095804D4B1B78BB73BB7B0A2BCC
:100A4C0063D14B4B1B78DBB2002B09D0484B0022F7
:100A5C001A70484B01221A70474B00221A7079E029
:100A6C00454B1B78DBB2002B74D0444B1B78DBB2AC
:100A7C00012B43D8424B1B787B730023FB7311E093
:100A8C00FB7B7A7BF97B3F48C35CDCB23E48134668
:100A9C009B0013449B0003440B4422461A70FB7BBF
:100AAC000133FB73344B1B78DBB2FA7B9A42E7D3EE
:100ABC007A7B314B1B78DBB21846334913469B00CB
:100ACC0013449B000B44034400221A707B7B2A4A7C
:100ADC001278D1B22D4AD154294B1B78DBB2013399
:100AEC00DBB203F00103DAB2254B1A70234B1B78EF
:100AFC00DBB20133DAB2214B1A7002E01D4B01223A
:100B0C001A701D4B00221A7024E0BB7B1F2B21D9BD
:100B1C00BB7B7E2B1ED8164B1B78DBB283F00103FC
:100B2C00DBB2002B16D0144B1B78DBB2122B0BD87C
:100B3C00114B1B78DBB25A1CD1B20F4A11701946FB
:100B4C00104ABB7B535405E0094B01221A700A4B27
:100B5C0000221A7001220549034801F0EAFE00E068
:100B6C0000BF1437BD4690BDC001002054020020C8
:100B7C006D0200206E0200206C0200209C020020FE
:100B8C009A020020580200207002002098020020D7
:100B9C0080B582B000AF78607B68064A934204D17E
:100BAC0001220549034801F0C4FE00BF0837BD46C9
:100BBC0080BD00BFC00100205402002080B483B06F
:100BCC0000AF0346FB71FB792F2B05D9FB79392B31
:100BDC0002D8FB79303B13E0FB79402B05D9FB792C
:100BEC00462B02D8FB79373B0AE0FB79602B05D901
:100BFC00FB79662B02D8FB79573B01E04FF0FF33B2
:100C0C0018460C37BD4680BC7047000080B5ADF56A
:100C1C000C7D04AF00F0FCFC00F052FB00F0BCFBC0
:100C2C0000F090FBFFF7ECFDCA48FFF7F3FBFFF772
:100C3C000DFC4FF47A7000F04DFDFFF771FC0023B2
:100C4C00C7F81C3207F164014FF47A733022C248A2
:100C5C00FFF7C8FC0346002B26D107F1640307F508
:100C6C008270BE4A602102F00FFC07F582731846B1
:100C7C00FFF7D0FB07F164014FF47A733022B848C8
:100C8C00FFF7B0FC0346002B40F08C8007F16403A7
:100C9C0007F58270B34A602102F0F6FB07F5827308
:100CAC001846FFF7B7FB7DE0D7F81C320133C7F8C5
:100CBC001C3264230D22AC49AC4801F018FD002312
:100CCC00A7F81A3200F0FCFCC7F8F80111E0B7F8ED
:100CDC001A3207F5EC72D1180A230122A34801F04D
:100CEC0091FD0346002B04D1B7F81A320133A7F853
:100CFC001A32B7F81A320F2B08D800F0E1FC024672
:100D0C00D7F8F831D31AB3F57A7FE0D3B7F81A32A3
:100D1C00002B08D107F58270D7F81C32944A602159
:100D2C0002F0B2FB38E0B7F81A3207F58270009384
:100D3C00D7F81C328F4A602102F0A6FBC7F81402C8
:100D4C000023A7F812321DE007F58272D7F814328F
:100D5C00D018D7F81432C3F16001B7F8123203F58A
:100D6C0008733B4413F8483C834A02F08DFB02465F
:100D7C00D7F814321344C7F81432B7F812320133CF
:100D8C00A7F81232B7F81222B7F81A329A4203D2E5
:100D9C00D7F814325B2BD7DD07F582731846FFF7B3
:100DAC0039FB4FE700BF7548FFF744FC7448FFF769
:100DBC0041FC7448FFF73EFC7348FFF73BFC73485B
:100DCC00FFF738FC7248FFF735FC7248FFF732FC2E
:100DDC007148FFF72FFC7148FFF72CFC7048FFF7A8
:100DEC0029FC7048FFF726FC6F48FFF713FB6F4890
:100DFC00FFF710FB6E4B1B78DBB2002B09D072B6E1
:100E0C0000BF6B4B00221A7062B600BF6948FFF737
:100E1C0001FB07F5E27314211846FFF729FD034681
:100E2C00002B00F0048107F5E2731846FFF784FDF0
:100E3C000346002B7BD0002387F81132002387F860
:100E4C00103207F5E2731846FFF764F9024607F50E
:100E5C00827007F5E27300931346574AA02102F003
:100E6C0013FB07F582731846FFF7D4FA002387F8B3
:100E7C000F3220E007F1640107F5E27320221846D7
:100E8C00FFF700FC034687F8113297F81132002B5C
:100E9C0016D197F81032013387F8103297F80F32C9
:100EAC000133022B02D8FA2000F014FC97F80F3211
:100EBC00013387F80F3297F80F32022BDAD900E0A2
:100ECC0000BF97F81132002B19D197F81032032B71
:100EDC0015D197F8103207F5E27207F5827000937E
:100EEC001346364AA02102F0CFFA07F58273184652
:100EFC00FFF790FA2021324801F0A6F9BEE197F8ED
:100F0C001032013307F5E27107F5827007F16402C4
:100F1C00019200930B462B4AA02102F0B5FA07F57B
:100F2C0082731846FFF776FAFFF7FAFAA6E107F58F
:100F3C00E2731846FFF7EEF8034607F58270224A73
:100F4C00A02102F0A1FAC7F808020023C7F8043266
:100F5C0059E000BFC03C0008D83C0008E43C000845
:100F6C00043D0008103D0008243D00080802002044
:100F7C00343D00087C3D0008983D0008A03D000869
:100F8C00B43D0008D03D0008E43D0008F83D0008E1
:100F9C000C3E0008203E0008343E0008483E000885
:100FAC005C3E0008703E0008843E0008C03E00080D
:100FBC006E020020003F0008243F0008443F000858
:100FCC0000080140683F0008943F000807F5827252
:100FDC00D7F80832D018D7F80832C3F1A00107F5BA
:100FEC00E272D7F8043213441B78A54A02F04CFA8B
:100FFC000246D7F808321344C7F80832D7F804323F
:10100C000133C7F8043207F5E2731846FFF782F88C
:10101C000246D7F80432934203D2D7F808329C2BFD
:10102C00D4DD07F582731846FFF7F4F926E1391D74
:10103C004FF47A7320229348FFF7D4FA0346002B1F
:10104C0007D13B1D90491846FFF75AF80346002B71
:10105C000FD08E48FFF7DEF9391D4FF47A7320223A
:10106C008B48FFF7BFFAC82000F034FBFFF758FAA3
:10107C0004E107F164034FF47A62A0211846FFF7EC
:10108C0063FA0346002B03D08248FFF7C3F9F5E05F
:10109C0007F1640308228049184602F027FA034638
:1010AC00002B40F0BF8007F164030833C7F800320F
:1010BC0004E0D7F800320133C7F80032D7F8003219
:1010CC001B78202BF5D00023A7F8FE3140E0D7F891
:1010DC0000321B781846FFF771FDC7F8F001D7F8FE
:1010EC00003201331B781846FFF768FDC7F8EC0196
:1010FC00D7F8F031002B3ADBD7F8EC31002B36DB8C
:10110C00D7F8F0315BB21B015AB2D7F8EC315BB2B5
:10111C0013435BB287F8EB3197F8EB311F2B06D9F1
:10112C0097F8EB317E2B02D897F8EB2100E02E22BA
:10113C00B7F8FE31591CA7F8FE11194607F50873CC
:10114C00A3F5FE735A54D7F800320233C7F80032B5
:10115C00D7F800321B78002B09D0D7F800320133B6
:10116C001B78002B03D0B7F8FE313E2BAFD9B7F864
:10117C00FE3107F50872A2F5FE720021D1543F230F
:10118C00C7F8B43107F5DC7300221A605A609A6014
:10119C003F23C7F8A43107F5D47300221A605A60B4
:1011AC009A6007F5DA714FF47A7310223B48FFF717
:1011BC0019FA07F5D2714FF47A7310223848FFF7F9
:1011CC0011FA97F8A4312D2B0BD097F8A4312F2BB3
:1011DC0003D997F8A431392B03D907F5D2733F22E1
:1011EC001A80304B1B6801332E4A13602D4B1A6842
:1011FC0007F5827007F5D273029307F5DA73019342
:10120C0007F1240300931346274AA02102F03CF96E
:10121C0007F582731846FFF7FDF82021234801F0EB
:10122C0013F8E7E507F1640321491846FEF768FF58
:10123C000346002B15D100F043FAC7F8F4011D4BFF
:10124C001B68D7F8F421D31A43F6972293427FF602
:10125C00D1AD1948FFF7DEF8164AD7F8F431136010
:10126C00C8E507F1640307F58270144AA02102F067
:10127C000BF907F582731846FFF7CCF8BAE500BFF7
:10128C00BC3F0008C43F00081C3C0008D03F0008CD
:10129C00F43F0008044000082440000830400008D7
:1012AC004040000850020020504000080008014057
:1012BC0070400008A00200207C400008A8400008F4
:1012CC0080B590B000AF07F1180328220021184612
:1012DC00FEF76EFF3B1D00221A605A609A60DA60BE
:1012EC001A610223BB610123BB621023FB62022340
:1012FC007B630023BB634FF46013FB6307F118039C
:10130C00184600F00BFA0346002B01D000F0B2F89F
:10131C000F237B600223BB600023FB604FF48063D0
:10132C003B6100237B613B1D0221184600F078FCD9
:10133C000346002B01D000F09DF800BF4037BD469E
:10134C0080BD000080B500AF114B124A1A60104BE3
:10135C004FF4E1325A600E4B00229A600C4B002283
:10136C00DA600B4B00221A61094B0C225A61084BB4
:10137C0000229A61064B0022DA61054801F067F9F8
:10138C000346002B01D000F075F800BF80BD00BFF4
:10139C00C00100200044004080B588B000AF07F1C8
:1013AC00100300221A605A609A60DA602D4B9B6918
:1013BC002C4A43F0100393612A4B9B6903F01003F2
:1013CC00FB60FB68274B9B69264A43F02003936123
:1013DC00244B9B6903F02003BB60BB68214B9B69CA
:1013EC00204A43F0040393611E4B9B6903F00403F2
:1013FC007B607B681B4B9B691A4A43F00803936123
:10140C00184B9B6903F008033B603B6800222021CA
:10141C00154800F001FF4FF400533B61134B7B6107
:10142C000023BB6107F110031946114800F086FD3B
:10143C0020233B6101237B610023BB610223FB6101
:10144C0007F110031946084800F078FD002200212E
:10145C00282001F0C6F8282001F0DFF800BF203763
:10146C00BD4680BD00100240000801400000111074
:10147C000010014080B400AF72B600BF00BFFDE7A2
:10148C0080B400AF00BFFDE780B400AF00BFFDE744
:10149C0080B400AF00BFFDE780B400AF00BFFDE734
:1014AC0080B400AF00BFFDE780B400AF00BFBD4605
:1014BC0080BC704780B400AF00BFBD4680BC704795
:1014CC0080B400AF00BFBD4680BC704780B500AF94
:1014DC0000F0E4F800BF80BD80B500AF024801F019
:1014EC004DFA00BF80BD00BFC001002080B500AF29
:1014FC004FF4005000F0C2FE00BF80BD80B485B038
:10150C0000AF154B9B69144A43F001039361124BD6
:10151C009B6903F00103BB60BB680F4BDB690E4A90
:10152C0043F08053D3610C4BDB6903F080537B6039
:10153C007B680A4B5B68FB60FB6823F0E063FB6035
:10154C00FB6843F00073FB60044AFB68536000BF08
:10155C001437BD4680BC70470010024000000140AB
:10156C0080B588B000AF786007F1100300221A60D4
:10157C005A609A60DA607B681B681F4A934237D1C5
:10158C001E4BDB691D4A43F40033D3611B4BDB69F3
:10159C0003F40033FB60FB68184B9B69174A43F05C
:1015AC0004039361154B9B6903F00403BB60BB6898
:1015BC0004233B6102237B610223FB6107F11003CF
:1015CC0019460F4800F0BAFC08233B6100237B61ED
:1015DC000023BB6107F110031946094800F0AEFC6B
:1015EC0000220121262000F0FCFF262001F015F836
:1015FC0000BF2037BD4680BD0044004000100240B3
:10160C000008014080B400AF00BFBD4680BC7047ED
:10161C0080B500AF084B1B68074A43F010031360FA
:10162C00032000F0D3FF002000F008F8FFF766FF5E
:10163C000023184680BD00BF0020024080B582B058
:10164C0000AF7860124B1A68124B1B7819464FF496
:10165C007A73B3FBF1F3B2FBF3F3184600F0EBFF34
:10166C000346002B01D001230EE07B680F2B0AD818
:10167C00002279684FF0FF3000F0B3FF064A7B6818
:10168C001360002300E0012318460837BD4680BDD7
:10169C0050000020580000205400002080B400AFFF
:1016AC00054B1B781A46054B1B681344034A136001
:1016BC0000BFBD4680BC704758000020A40200202B
:1016CC0080B400AF024B1B681846BD4680BC704707
:1016DC00A402002080B584B000AF7860FFF7F0FF63
:1016EC00B8607B68FB60FB68B3F1FF3F05D00A4B29
:1016FC001B781A46FB681344FB6000BFFFF7E0FF42
:10170C000246BB68D31AFA689A42F7D800BF00BFEA
:10171C001037BD4680BD00BF5800002080B586B094
:10172C0000AF78607B68002B01D1012372E27B68EB
:10173C001B6803F00103002B00F08780924B5B6861
:10174C0003F00C03042B0CD08F4B5B6803F00C03E1
:10175C00082B12D18C4B5B6803F48033B3F5803FBC
:10176C000BD1894B1B6803F40033002B6CD07B68C6
:10177C005B68002B68D101234CE27B685B68B3F596
:10178C00803F06D1804B1B687F4A43F48033136043
:10179C002EE07B685B68002B0CD17B4B1B687A4A74
:1017AC0023F480331360784B1B68774A23F480232F
:1017BC0013601DE07B685B68B3F5A02F0CD1724BF6
:1017CC001B68714A43F4802313606F4B1B686E4A8D
:1017DC0043F4803313600BE06B4B1B686A4A23F4B1
:1017EC0080331360684B1B68674A23F480231360B3
:1017FC007B685B68002B13D0FFF762FF386108E051
:10180C00FFF75EFF02463B69D31A642B01D9032311
:10181C0000E25D4B1B6803F40033002BF0D014E0A6
:10182C00FFF74EFF386108E0FFF74AFF02463B69BD
:10183C00D31A642B01D90323ECE1534B1B6803F43B
:10184C000033002BF0D100E000BF7B681B6803F075
:10185C000203002B63D04C4B5B6803F00C03002B92
:10186C000BD0494B5B6803F00C03082B1CD1464B87
:10187C005B6803F48033002B16D1434B1B6803F0D9
:10188C000203002B05D07B681B69012B01D00123BF
:10189C00C0E13D4B1B6823F0F8027B685B69DB0001
:1018AC00394913430B603AE07B681B69002B20D04D
:1018BC00364B01221A60FFF703FF386108E0FFF78F
:1018CC00FFFE02463B69D31A022B01D90323A1E187
:1018DC002D4B1B6803F00203002BF0D02A4B1B6826
:1018EC0023F0F8027B685B69DB00274913430B602C
:1018FC0015E0264B00221A60FFF7E2FE386108E083
:10190C00FFF7DEFE02463B69D31A022B01D90323F3
:10191C0080E11D4B1B6803F00203002BF0D17B68A8
:10192C001B6803F00803002B3AD07B689B69002BE3
:10193C0019D0174B01221A60FFF7C2FE386108E07C
:10194C00FFF7BEFE02463B69D31A022B01D90323D3
:10195C0060E10D4B5B6A03F00203002BF0D0012019
:10196C0000F0CEFA1CE00A4B00221A60FFF7A8FE2A
:10197C0038610FE0FFF7A4FE02463B69D31A022B35
:10198C0008D9032346E100BF001002400000424288
:10199C0080044242924B5B6A03F00203002BE9D1B4
:1019AC007B681B6803F00403002B00F0A680002367
:1019BC00FB758B4BDB6903F08053002B0DD1884BEF
:1019CC00DB69874A43F08053D361854BDB6903F0B5
:1019DC008053BB60BB680123FB75824B1B6803F40F
:1019EC008073002B18D17F4B1B687E4A43F48073A5
:1019FC001360FFF765FE386108E0FFF761FE0246F1
:101A0C003B69D31A642B01D9032303E1754B1B6883
:101A1C0003F48073002BF0D07B68DB68012B06D1BC
:101A2C006F4B1B6A6E4A43F0010313622DE07B6817
:101A3C00DB68002B0CD16A4B1B6A694A23F001034B
:101A4C001362674B1B6A664A23F0040313621CE0A3
:101A5C007B68DB68052B0CD1614B1B6A604A43F039
:101A6C00040313625E4B1B6A5D4A43F0010313626D
:101A7C000BE05B4B1B6A5A4A23F001031362584B71
:101A8C001B6A574A23F0040313627B68DB68002B44
:101A9C0015D0FFF715FE38610AE0FFF711FE02467C
:101AAC003B69D31A41F28832934201D90323B1E046
:101ABC004B4B1B6A03F00203002BEED014E0FFF734
:101ACC00FFFD38610AE0FFF7FBFD02463B69D31AC4
:101ADC0041F28832934201D903239BE0404B1B6AAD
:101AEC0003F00203002BEED1FB7D012B05D13C4B07
:101AFC00DB693B4A23F08053D3617B68DB69002BA5
:101B0C0000F08780364B5B6803F00C03082B61D028
:101B1C007B68DB69022B46D1334B00221A60FFF73E
:101B2C00CFFD386108E0FFF7CBFD02463B69D31AC5
:101B3C00022B01D903236DE0294B1B6803F00073C2
:101B4C00002BF0D17B681B6AB3F5803F08D1244B86
:101B5C005B6823F400327B689B68214913434B601C
:101B6C001F4B5B6823F474127B68196A7B685B6A91
:101B7C000B431B4913434B601B4B01221A60FFF7AD
:101B8C009FFD386108E0FFF79BFD02463B69D31AC5
:101B9C00022B01D903233DE0114B1B6803F00073AA
:101BAC00002BF0D035E0104B00221A60FFF788FDB7
:101BBC00386108E0FFF784FD02463B69D31A022B1B
:101BCC0001D9032326E0064B1B6803F00073002B9E
:101BDC00F0D11EE07B68DB69012B07D1012319E0F2
:101BEC000010024000700040600042420B4B5B68EA
:101BFC00FB60FB6803F480327B681B6A9A4206D157
:101C0C00FB6803F470127B685B6A9A4201D0012373
:101C1C0000E0002318461837BD4680BD0010024076
:101C2C0080B584B000AF786039607B68002B01D13F
:101C3C000123D0E06A4B1B6803F007033A689A4211
:101C4C0010D9674B1B6823F0070265493B681343A7
:101C5C000B60634B1B6803F007033A689A4201D090
:101C6C000123B8E07B681B6803F00203002B20D033
:101C7C007B681B6803F00403002B05D0594B5B6891
:101C8C00584A43F4E06353607B681B6803F0080315
:101C9C00002B05D0534B5B68524A43F4605353609E
:101CAC00504B5B6823F0F0027B689B684D491343F3
:101CBC004B607B681B6803F00103002B40D07B68F2
:101CCC005B68012B07D1474B1B6803F40033002BD7
:101CDC0015D101237FE07B685B68022B07D1414B58
:101CEC001B6803F00073002B09D1012373E03D4BFB
:101CFC001B6803F00203002B01D101236BE0394B6D
:101D0C005B6823F003027B685B68364913434B60C6
:101D1C00FFF7D6FCF8600AE0FFF7D2FC0246FB683E
:101D2C00D31A41F28832934201D9032353E02D4B4D
:101D3C005B6803F00C027B685B689B009A42EBD1FA
:101D4C00274B1B6803F007033A689A4210D2244BC6
:101D5C001B6823F0070222493B6813430B60204B9E
:101D6C001B6803F007033A689A4201D0012332E062
:101D7C007B681B6803F00403002B08D0194B5B68CD
:101D8C0023F4E0627B68DB68164913434B607B6885
:101D9C001B6803F00803002B09D0124B5B6823F47B
:101DAC0060527B681B69DB000E4913434B6000F0EB
:101DBC0021F802460B4B5B681B0903F00F030A4921
:101DCC00CB5C22FA03F3094A1360094B1B681846D3
:101DDC00FFF734FC002318461037BD4680BD00BF0A
:101DEC000020024000100240E84000085000002093
:101DFC005400002080B487B000AF0023FB600023A8
:101E0C00BB6000237B6100237B6000233B611E4B86
:101E1C005B68FB60FB6803F00C03042B02D0082BFF
:101E2C0003D027E0194B3B6127E0FB689B0C03F0C8
:101E3C000F03174AD35C7B60FB6803F48033002BE1
:101E4C0010D0114B5B685B0C03F00103114AD35C9F
:101E5C00BB607B680D4A03FB02F2BB68B2FBF3F379
:101E6C007B6104E07B680C4A02FB03F37B617B69BA
:101E7C003B6102E0054B3B6100BF3B6918461C37D8
:101E8C00BD4680BC704700BF0010024000127A00B3
:101E9C00004100081041000800093D0080B400AF6B
:101EAC00024B1B681846BD4680BC70475000002092
:101EBC0080B500AFFFF7F2FF0246054B5B681B0ACB
:101ECC0003F007030349CB5C22FA03F3184680BDE9
:101EDC0000100240F840000880B500AFFFF7DEFFAD
:101EEC000246054B5B68DB0A03F007030349CB5C36
:101EFC0022FA03F3184680BD00100240F840000897
:101F0C0080B485B000AF78600A4B1B680A4AA2FB0C
:101F1C0003235B0A7A6802FB03F3FB6000BFFB68D8
:101F2C005A1EFA60002BF9D100BF00BF1437BD4612
:101F3C0080BC704750000020D34D621080B48BB031
:101F4C0000AF7860396000237B6200233B6253E171
:101F5C0001227B6A02FA03F37B613B681B687A6996
:101F6C0013403B613A697B699A4240F042813B687D
:101F7C005B688F4A934247D08D4A93425ED88D4A14
:101F8C00934241D08B4A934258D88B4A93423BD0D0
:101F9C00894A934252D8894A934235D0874A934210
:101FAC004CD8874A93422FD0854A934246D8854ACB
:101FBC00934229D0834A934240D8122B1FD0122B24
:101FCC003CD8112B11D0112B38D8032B33D0032B29
:101FDC0034D8022B0ED0022B30D8002B14D0012B6E
:101FEC002CD13B68DB683B6229E03B68DB6804333F
:101FFC003B6224E03B68DB6808333B621FE03B68D4
:10200C00DB680C333B621AE03B689B68002B02D107
:10201C0004233B6213E03B689B68012B05D108232A
:10202C003B627B687A691A6109E008233B627B6832
:10203C007A695A6103E000233B6200E000BF3B6910
:10204C00FF2B02D87B68FB6102E07B680433FB61E9
:10205C003B69FF2B03D87B6A9B00BB6103E07B6A67
:10206C00083B9B00BB61FB691A680F21BB6901FA35
:10207C0003F3DB431A40396ABB6901FA03F31A43D1
:10208C00FB691A603B685B6803F08053002B00F01F
:10209C00B0804D4B9B694C4A43F0010393614A4B12
:1020AC009B6903F00103BB60BB68484A7B6A9B08D1
:1020BC00023352F82330FB607B6A03F003039B006E
:1020CC000F2202FA03F3DB43FA681340FB607B68D0
:1020DC003F4A934213D07B683E4A93420DD07B68B3
:1020EC003D4A934207D07B683C4A934201D103237B
:1020FC0006E0042304E0022302E0012300E00023B5
:10210C007A6A02F0030292009340FA681343FB6070
:10211C002E497B6A9B080233FA6841F823203B68FE
:10212C005B6803F48013002B06D02D4B9A682C4966
:10213C003B6913438B6006E0294B9A683B69DB4390
:10214C00274913408B603B685B6803F40013002B3A
:10215C0006D0234BDA6822493B691343CB6006E077
:10216C001F4BDA683B69DB431D491340CB603B686E
:10217C005B6803F40033002B06D0194B5A681849DE
:10218C003B6913434B6006E0154B5A683B69DB43D4
:10219C00134913404B603B685B6803F48033002B9E
:1021AC0020D00F4B1A680E493B6913430B6020E09B
:1021BC00000032100000311000002210000021102D
:1021CC00000012100000111000100240000001402D
:1021DC0000080140000C01400010014000140140B7
:1021EC00000401400B4B1A683B69DB43094913405F
:1021FC000B607B6A01337B623B681A687B6A22FA4C
:10220C0003F3002B7FF4A4AE00BF00BF2C37BD46F8
:10221C0080BC70470004014080B483B000AF78608C
:10222C000B467B8013467B707B78002B03D07A881F
:10223C007B681A6103E07B881A047B681A6100BF13
:10224C000C37BD4680BC704780B485B000AF786059
:10225C000B467B807B68DB68FB607A88FB681340ED
:10226C001A04FB68D9437B880B401A437B681A61BC
:10227C0000BF1437BD4680BC7047000080B582B0EB
:10228C0000AF0346FB80084B5A69FB881340002BB8
:10229C0006D0054AFB885361FB88184600F006F807
:1022AC0000BF0837BD4680BD0004014080B483B038
:1022BC0000AF0346FB8000BF0C37BD4680BC7047A7
:1022CC0080B485B000AF78600023FB737B6893F813
:1022DC002130DBB2022B08D07B6804229A637B6826
:1022EC00002283F82020012320E07B681B681A68F9
:1022FC007B681B6822F00E021A607B681B681A68E8
:10230C007B681B6822F001021A607B681A6C7B6880
:10231C00DB6B012101FA02F25A607B68012283F81F
:10232C0021207B68002283F82020FB7B1846143781
:10233C00BD4680BC7047000080B584B000AF7860AB
:10234C000023FB737B6893F82130DBB2022B05D0A2
:10235C007B6804229A630123FB7351E07B681B6842
:10236C001A687B681B6822F00E021A607B681B6877
:10237C001A687B681B6822F001021A607B681B6874
:10238C00224A934229D07B681B68214A934222D06F
:10239C007B681B681F4A93421AD07B681B681E4AD5
:1023AC00934212D07B681B681C4A93420AD07B680C
:1023BC001B681B4A934202D14FF480130EE04FF07E
:1023CC0080730BE04FF4803308E04FF4805305E04A
:1023DC004FF4807302E0102300E00123114A536094
:1023EC007B68012283F821207B68002283F820205F
:1023FC007B685B6B002B03D07B685B6B78689847C2
:10240C00FB7B18461037BD4680BD00BF080002405C
:10241C001C000240300002404400024058000240C0
:10242C006C0002400000024080B485B000AF7860C0
:10243C007B6803F00703FB600C4BDB68BB60BA687E
:10244C004FF6FF031340BB60FB681A02BB681343D3
:10245C0043F0BF6343F40033BB60044ABB68D360F2
:10246C0000BF1437BD4680BC704700BF00ED00E0D4
:10247C0080B400AF044BDB681B0A03F0070318465B
:10248C00BD4680BC704700BF00ED00E080B483B057
:10249C0000AF0346FB7197F90730002B0BDBFB7980
:1024AC0003F01F02064997F907305B09012000FA77
:1024BC0002F241F8232000BF0C37BD4680BC7047A8
:1024CC0000E100E080B483B000AF03463960FB71DB
:1024DC0097F90730002B0ADB3B68DAB20C4997F905
:1024EC0007301201D2B20B4483F800230AE03B6898
:1024FC00DAB20849FB7903F00F03043B1201D2B2A4
:10250C000B441A7600BF0C37BD4680BC704700BF29
:10251C0000E100E000ED00E080B489B000AFF860AD
:10252C00B9607A60FB6803F007037B617B69033B4E
:10253C00042B04D87B69C3F10703FB6101E004237E
:10254C00FB617B690433062B03D97B69033BBB61BD
:10255C0001E00023BB614FF0FF32FB6902FA03F389
:10256C00DA43BB681A40BB699A404FF0FF31BB6934
:10257C0001FA03F3D9437B680B4013431846243705
:10258C00BD4680BC7047000080B582B000AF78605B
:10259C007B68013BB3F1807F01D301230FE00A4A32
:1025AC007B68013B53600F214FF0FF30FFF78AFF30
:1025BC00054B00229A60044B07221A600023184630
:1025CC000837BD4680BD00BF10E000E080B582B08A
:1025DC0000AF78607868FFF727FF00BF0837BD466B
:1025EC0080BD80B586B000AF0346B9607A60FB73DE
:1025FC0000237B61FFF73CFF78617A68B9687869E2
:10260C00FFF78AFF024697F90F3011461846FFF77D
:10261C0059FF00BF1837BD4680BD80B582B000AFF2
:10262C000346FB7197F907301846FFF72FFF00BFE1
:10263C000837BD4680BD80B582B000AF7860786841
:10264C00FFF7A2FF034618460837BD4680BD80B58C
:10265C0082B000AF78607B68002B01D1012342E08F
:10266C007B6893F84130DBB2002B06D17B680022EB
:10267C0083F840207868FEF773FF7B68242283F888
:10268C0041207B681B68DA687B681B6822F4005267
:10269C00DA60786800F044FE7B681B681A697B6816
:1026AC001B6822F490421A617B681B685A697B682C
:1026BC001B6822F02A025A617B681B68DA687B6807
:1026CC001B6842F40052DA607B6800225A647B6813
:1026DC00202283F841207B68202283F842207B68EB
:1026EC0000225A63002318460837BD4680BD80B5CA
:1026FC008AB002AFF860B9603B601346FB800023E0
:10270C007B61FB6893F84130DBB2202B75D1BB6841
:10271C00002B02D0FB88002B01D101236EE0FB685B
:10272C0000225A64FB68212283F84120FEF7C8FF7F
:10273C007861FB68FA889A84FB68FA88DA84FB680B
:10274C009B68B3F5805F08D1FB681B69002B04D133
:10275C000023FB61BB68BB6103E0BB68FB6100232A
:10276C00BB612EE03B6800937B6900228021F868F6
:10277C0000F0A8FB0346002B05D0FB68202283F851
:10278C00412003233AE0FB69002B0BD1BB691B886A
:10279C001A46FB681B68C2F308025A60BB69023315
:1027AC00BB6107E0FB691A78FB681B685A60FB6920
:1027BC000133FB61FB68DB8C9BB2013B9AB2FB687B
:1027CC00DA84FB68DB8C9BB2002BCBD13B6800938B
:1027DC007B6900224021F86800F074FB0346002B53
:1027EC0005D0FB68202283F84120032306E0FB6818
:1027FC00202283F84120002300E0022318462037D2
:10280C00BD4680BD80B58AB002AFF860B9603B6050
:10281C001346FB8000237B61FB6893F84230DBB2EC
:10282C00202B40F08180BB68002B02D0FB88002B52
:10283C0001D1012379E0FB6800225A64FB68222253
:10284C0083F84220FB6800221A63FEF739FF786197
:10285C00FB68FA889A85FB68FA88DA85FB689B68BE
:10286C00B3F5805F08D1FB681B69002B04D10023F2
:10287C00FB61BB68BB6103E0BB68FB610023BB6110
:10288C0047E03B6800937B6900222021F86800F048
:10289C0019FB0346002B05D0FB68202283F842204D
:1028AC00032342E0FB69002B0CD1FB681B685B68BF
:1028BC009BB2C3F308039AB2BB691A80BB6902339B
:1028CC00BB611FE0FB689B68B3F5805F07D0FB68BA
:1028DC009B68002B0AD1FB681B69002B06D1FB6897
:1028EC001B685B68DAB2FB691A7008E0FB681B684E
:1028FC005B68DBB203F07F03DAB2FB691A70FB6929
:10290C000133FB61FB68DB8D9BB2013B9AB2FB6828
:10291C00DA85FB68DB8D9BB2002BB2D1FB682022E1
:10292C0083F84220002300E0022318462037BD46DE
:10293C0080BD80B584B000AFF860B9601346FB80F1
:10294C00FB6893F84230DBB2202B12D1BB68002B12
:10295C0002D0FB88002B01D101230BE0FB68002285
:10296C001A63FB881A46B968F86800F004FB034642
:10297C0000E0022318461037BD4680BD80B5BAB0C2
:10298C0000AF78607B681B681B68C7F8E4307B6815
:10299C001B68DB68C7F8E0307B681B685B69C7F8AD
:1029AC00DC300023C7F8D8300023C7F8D430D7F870
:1029BC00E43003F00F03C7F8D830D7F8D830002B29
:1029CC000FD1D7F8E43003F02003002B09D0D7F84F
:1029DC00E03003F02003002B03D0786800F0E1FB1B
:1029EC0059E2D7F8D830002B00F0DC80D7F8DC3077
:1029FC0003F00103002B06D1D7F8E03003F49073F9
:102A0C00002B00F0CF80D7F8E43003F00103002B4B
:102A1C000BD0D7F8E03003F48073002B05D07B6823
:102A2C005B6C43F001027B685A64D7F8E43003F026
:102A3C000403002B0BD0D7F8DC3003F00103002B80
:102A4C0005D07B685B6C43F002027B685A64D7F854
:102A5C00E43003F00203002B0BD0D7F8DC3003F08A
:102A6C000103002B05D07B685B6C43F004027B6890
:102A7C005A64D7F8E43003F00803002B11D0D7F8D0
:102A8C00E03003F02003002B05D1D7F8DC3003F045
:102A9C000103002B05D07B685B6C43F008027B685C
:102AAC005A647B685B6C002B00F0F081D7F8E43043
:102ABC0003F02003002B08D0D7F8E03003F02003FC
:102ACC00002B02D0786800F06CFB7B681B685B699C
:102ADC0003F04003C3F38013DBB2C7F8D4307B6838
:102AEC005B6C03F00803002B03D1D7F8D430002B18
:102AFC004FD0786800F078FA7B681B685B6903F04C
:102B0C004003002B41D07B681B681433C7F89C3002
:102B1C00D7F89C3053E8003FC7F89830D7F8983076
:102B2C0023F04003C7F8D0307B681B681433D7F808
:102B3C00D020C7F8A820C7F8A430D7F8A410D7F82D
:102B4C00A82041E80023C7F8A030D7F8A030002B0C
:102B5C00D9D17B68DB6B002B13D07B68DB6B7E4A97
:102B6C005A637B68DB6B1846FFF7E6FB0346002BCA
:102B7C0016D07B68DB6B5B6B7A68D26B1046984720
:102B8C000EE07868FEF704F80AE07868FEF700F8C3
:102B9C0006E07868FDF7FCFF7B6800225A6475E15B
:102BAC0000BF73E17B681B6B012B40F04F81D7F8A2
:102BBC00E43003F01003002B00F04881D7F8E0302C
:102BCC0003F01003002B00F041810023BB607B68F5
:102BDC001B681B68BB607B681B685B68BB60BB6861
:102BEC007B681B685B6903F04003002B00F0B68028
:102BFC007B68DB6B1B685B68A7F8BE30B7F8BE3030
:102C0C00002B00F045817B689B8DB7F8BE209A4263
:102C1C0080F03E817B68B7F8BE20DA857B68DB6B81
:102C2C009B69202B00F088807B681B680C33C7F8ED
:102C3C008830D7F8883053E8003FC7F88430D7F88D
:102C4C00843023F48073C7F8B8307B681B680C336E
:102C5C00D7F8B820C7F89420C7F89030D7F8901060
:102C6C00D7F8942041E80023C7F88C30D7F88C3083
:102C7C00002BD9D17B681B6814337B677B6F53E8BF
:102C8C00003F3B673B6F23F00103C7F8B4307B6810
:102C9C001B681433D7F8B420C7F88020FB67F96F92
:102CAC00D7F8802041E80023BB67BB6F002BE1D134
:102CBC007B681B6814333B663B6E53E8003FFB6537
:102CCC00FB6D23F04003C7F8B0307B681B681433EE
:102CDC00D7F8B020FA66BB66B96EFA6E41E80023ED
:102CEC007B667B6E002BE3D17B68202283F842202D
:102CFC007B6800221A637B681B680C33FB64FB6CDB
:102D0C0053E8003FBB64BB6C23F01003C7F8AC3036
:102D1C007B681B680C33D7F8AC20BA657B65796D82
:102D2C00BA6D41E800233B653B6D002BE3D17B681A
:102D3C00DB6B1846FFF7C4FA7B6802225A637B6888
:102D4C009A8D7B68DB8D9BB2D31A9BB2194678683F
:102D5C0000F0ADF89CE000BFB93000087B689A8D9C
:102D6C007B68DB8D9BB2D31AA7F8CE307B68DB8DEA
:102D7C009BB2002B00F08E80B7F8CE30002B00F009
:102D8C0089807B681B680C33BB63BB6B53E8003FCB
:102D9C007B637B6B23F49073C7F8C8307B681B682C
:102DAC000C33D7F8C8207A643B64396C7A6C41E8F0
:102DBC000023FB63FB6B002BE3D17B681B68143394
:102DCC007B627B6A53E8003F3B623B6A23F0010362
:102DDC00C7F8C4307B681B681433D7F8C4203A6337
:102DEC00FB62F96A3A6B41E80023BB62BB6A002BB9
:102DFC00E3D17B68202283F842207B6800221A638F
:102E0C007B681B680C333B613B6953E8003FFB60FC
:102E1C00FB6823F01003C7F8C0307B681B680C33C9
:102E2C00D7F8C020FA61BB61B969FA6941E800239F
:102E3C007B617B69002BE3D17B6802225A63B7F874
:102E4C00CE301946786800F032F823E0D7F8E43039
:102E5C0003F08003002B09D0D7F8E03003F0800397
:102E6C00002B03D0786800F035F914E0D7F8E43083
:102E7C0003F04003002B0ED0D7F8E03003F04003F2
:102E8C00002B08D0786800F074F904E000BF02E071
:102E9C0000BF00E000BFE837BD4680BD80B483B002
:102EAC0000AF786000BF0C37BD4680BC704780B463
:102EBC0083B000AF78600B467B8000BF0C37BD46FB
:102ECC0080BC704780B586B000AFF860B9603B60DD
:102EDC001346FB713BE03B6AB3F1FF3F37D0FEF783
:102EEC00EFFB02463B68D31A3A6A9A4202D33B6A1A
:102EFC00002B01D103233AE0FB681B68DB6803F06D
:102F0C000403002B23D0BB68802B20D0BB68402B44
:102F1C001DD0FB681B681B6803F00803082B16D137
:102F2C0000237B61FB681B681B687B61FB681B686B
:102F3C005B687B617B69F86800F056F8FB680822D7
:102F4C005A64FB68002283F8402001230FE0FB68E1
:102F5C001B681A68BB681340BA689A420CBF0123FD
:102F6C000023DBB21A46FB799A42B4D000231846F0
:102F7C001837BD4680BD80B485B000AFF860B9602D
:102F8C001346FB80FB68BA689A62FB68FA889A85DC
:102F9C00FB68FA88DA85FB6800225A64FB682222F7
:102FAC0083F84220FB681B69002B07D0FB681B6869
:102FBC00DA68FB681B6842F48072DA60FB681B6895
:102FCC005A69FB681B6842F001025A61FB681B6876
:102FDC00DA68FB681B6842F02002DA6000231846AE
:102FEC001437BD4680BC704780B495B000AF786094
:102FFC007B681B680C337B637B6B53E8003F3B6344
:10300C003B6B23F49073FB647B681B680C33FA6C8A
:10301C003A64FB63F96B3A6C41E80023BB63BB6B0E
:10302C00002BE5D17B681B6814333B623B6A53E889
:10303C00003FFB61FB6923F00103BB647B681B68E9
:10304C001433BA6CFA62BB62B96AFA6A41E80023BB
:10305C007B627B6A002BE5D17B681B6B012B19D142
:10306C007B681B680C33FB60FB6853E8003FBB605C
:10307C00BB6823F010037B647B681B680C337A6C91
:10308C00BA617B617969BA6941E800233B613B69AC
:10309C00002BE5D17B68202283F842207B6800223C
:1030AC001A6300BF5437BD4680BC704780B584B0EE
:1030BC0000AF78607B685B6AFB60FB680022DA8596
:1030CC00FB680022DA84F868FDF762FD00BF103758
:1030DC00BD4680BD80B485B000AF78607B6893F846
:1030EC004130DBB2212B3ED17B689B68B3F5805F0E
:1030FC0014D17B681B69002B10D17B681B6AFB60A9
:10310C00FB681B881A467B681B68C2F308025A606E
:10311C007B681B6A9A1C7B681A6208E07B681B6AD6
:10312C00591C7A6811621A787B681B685A607B6834
:10313C00DB8C9BB2013B9BB27A681946D184002B85
:10314C000FD17B681B68DA687B681B6822F08002F1
:10315C00DA607B681B68DA687B681B6842F04002A7
:10316C00DA60002300E0022318461437BD4680BC09
:10317C00704780B582B000AF78607B681B68DA68F6
:10318C007B681B6822F04002DA607B68202283F89F
:10319C0041207868FFF782FE002318460837BD46A9
:1031AC0080BD80B58CB000AF78607B6893F84230FE
:1031BC00DBB2222B40F0AE807B689B68B3F5805F5E
:1031CC0017D17B681B69002B13D10023FB627B6832
:1031DC009B6ABB627B681B685B689BB2C3F308038A
:1031EC009AB2BB6A1A807B689B6A9A1C7B689A624B
:1031FC0026E07B689B6AFB620023BB627B689B6852
:10320C00B3F5805F07D07B689B68002B0AD17B6885
:10321C001B69002B06D17B681B685B68DAB2FB6A02
:10322C001A7008E07B681B685B68DBB203F07F03F5
:10323C00DAB2FB6A1A707B689B6A5A1C7B689A62CA
:10324C007B68DB8D9BB2013B9BB27A681946D185BA
:10325C00002B5DD17B681B68DA687B681B6822F0E9
:10326C002002DA607B681B68DA687B681B6822F4D2
:10327C008072DA607B681B685A697B681B6822F075
:10328C0001025A617B68202283F842207B6800226D
:10329C005A637B681B6B012B35D17B6800221A6348
:1032AC007B681B680C337B617B6953E8003F3B6197
:1032BC003B6923F010037B627B681B680C337A6AD2
:1032CC003A62FB61F9693A6A41E80023BB61BB6968
:1032DC00002BE5D17B681B681B6803F01003102BD7
:1032EC000AD10023FB607B681B681B68FB607B6852
:1032FC001B685B68FB60FB687B689B8D1946786874
:10330C00FFF7D5FD02E07868FDF78CFB002302E0A7
:10331C00002300E0022318463037BD4680BD000074
:10332C0080B584B000AF78607B681B681B6923F4A0
:10333C0040517B68DA687B681B680A431A617B68BA
:10334C009A687B681B691A437B685B691343BB6093
:10335C007B681B68DB6823F4B05323F00C037A689A
:10336C001268B9680B43D3607B681B685B6923F4F4
:10337C0040717B689A697B681B680A435A617B6859
:10338C001B682C4A934203D1FEF7A6FDF86002E0BD
:10339C00FEF78EFDF860FA6813469B0013449A0002
:1033AC001A447B685B689B00B2FBF3F3224AA2FBD6
:1033BC0003235B091901FA6813469B0013449A0016
:1033CC001A447B685B689B00B2FBF3F21A4BA3FBBD
:1033DC0002035B09642000FB03F3D31A1B01323395
:1033EC00154AA2FB03235B0903F0F0031944FA68A6
:1033FC0013469B0013449A001A447B685B689B003D
:10340C00B2FBF3F20C4BA3FB02035B09642000FB41
:10341C0003F3D31A1B013233074AA2FB03235B09C4
:10342C0003F00F027B681B680A449A6000BF1037D8
:10343C00BD4680BD003801401F85EB51FEF7E2F818
:10344C000B480C490C4A002302E0D458C4500433F6
:10345C00C4188C42F9D3094A094C002301E01360CB
:10346C000432A242FBD3FCF7ABFEFDF7CFFB704757
:10347C00000000205C000020584100085C00002087
:10348C00AC020020FEE700000CB430B5154B0C1E4E
:10349C001D689DB008DA8B234FF0FF302B601DB0F8
:1034AC00BDE8304002B070474FF000031B9318BFCB
:1034BC000123E31A049307930B4B02900690059398
:1034CC00284621AB209A02A9019300F081F8431CF5
:1034DC00BCBF8B232B60002CE1D00022029B1A7006
:1034EC00DDE700BF000000200802FFFF10B56AB145
:1034FC0001398418027811F8013F9A4204D1013045
:10350C00A04201D0002AF5D1D01A10BD1046FCE71C
:10351C002DE9F0471F468E688246BE420C46904607
:10352C00334653D8B1F90C0010F4906F2BD0656969
:10353C002368096905EB4505A3EB010905EBD57576
:10354C007B1C6D104B44AB422A4684BF1D462A4659
:10355C00430527D511465046FCF7C4FE064658B322
:10356C004A46216900F0F3FAA38923F4906343F0EF
:10357C008003A38126614E4426603B463E4665612E
:10358C00A5EB0905A5601F463A464146206800F0A8
:10359C00B7FA0020A3689B1BA36023683B442360FD
:1035AC00BDE8F087504600F0E0FA06460028E1D16D
:1035BC0050462169FCF72AFE0C23CAF80030A38977
:1035CC004FF0FF3043F04003A381E9E73E46DBE7D1
:1035DC002DE9F0471F468B8906461B060D461446FF
:1035EC009CB010D50B6973B94021FCF77BFE2860A9
:1035FC00286130B90C2333604FF0FF301CB0BDE8AC
:10360C00F08740236B610023099320238DF8293028
:10361C0030234FF001080397644F8DF82A3023466E
:10362C001A7899461AB1252A03F10103F8D1B9EB9E
:10363C00040A0BD05346224629463046FFF768FF52
:10364C00013000F0A380099A5244099299F8003095
:10365C00002B00F09B8000224FF0FF33CDE90532A8
:10366C0009F10109049207928DF853201A924C46E5
:10367C00052214F8011B4D4800F05BFA049AD0B9EE
:10368C00D00644BF20238DF85330110744BF2B23A1
:10369C008DF8533099F800302A2B13D04B4600206C
:1036AC004FF00A0C07991A781C46303A092A4AD965
:1036BC00A8B1079113E0C01B08FA00F01043A14613
:1036CC000490D4E7039B191D1B680391002BBBBF0F
:1036DC005B4242F0020207930793B8BF049223782F
:1036EC002E2B0AD163782A2B32D1039B02341A1D5C
:1036FC001B68039243EAE3730593DFF8B49003224B
:10370C004846217800F015FA38B14022049BA0EB12
:10371C000900824013430134049321780622254882
:10372C008DF8281000F005FA002835D0224818BB77
:10373C00039B073323F0070308330393099B0134DE
:10374C00034409936BE701200CFB01210133AAE729
:10375C0000234FF00A0C18460593611C0A780C469E
:10376C00303A092A03D9002BC7D00590C5E70123AD
:10377C000CFB00200131F1E703AB00932A463046E5
:10378C000E4B04A9AFF30080421CD7D1AB895B066A
:10379C003FF532AF099831E703AB00932A46304628
:1037AC00064B04A900F082F8EEE700BF12410008B6
:1037BC00184100081C410008000000001D350008DD
:1037CC002DE9F047914698468A680B690746934263
:1037DC00B8BF1346C9F8003091F843200C46089E38
:1037EC0012B10133C9F800302368990642BFD9F8E9
:1037FC0000300233C9F80030256815F0060507D1F2
:10380C0004F1190AE368D9F800209B1AAB4229DCB1
:10381C0094F843302268003B18BF012392062ED443
:10382C004146384604F14302B047013021D02368A9
:10383C00A16803F00603042B12BF0025E568D9F834
:10384C000030226904BFED1A25EAE5758B1A2B446A
:10385C009142C8BF1D464FF000091A344D451AD18C
:10386C00002008E00123524641463846B04701305B
:10387C0003D14FF0FF30BDE8F0870135C2E73020AF
:10388C00E11881F843005A1C94F845102244023385
:10389C0082F84310C4E70123224641463846B0471C
:1038AC000130E6D009F10109D8E700002DE9F04319
:1038BC0098460B7E85B0782B174606460C460C9A1C
:1038CC0009D8622B01F1430108D8002B00F0DC80F1
:1038DC00582B00F0BD8004F1420539E0A3F16300E0
:1038EC001528F8D801A555F820F000BF513900086B
:1038FC0065390008E3380008E3380008E3380008AD
:10390C00E338000865390008E3380008E33800089C
:10391C00E3380008E3380008753A000891390008CC
:10392C00233A0008E3380008E33800089D3A000801
:10393C00E338000891390008E3380008E338000840
:10394C002B3A0008136804F14205191D1B6811601D
:10395C0084F842300123A8E013682568181D106014
:10396C00280601D51B6803E06A06FBD5B3F90030C5
:10397C00002B03DA2D225B4284F843200A22DFF865
:10398C0078C113E02568106815F0800F50F8043BDF
:10399C0002D16D0648BF9BB21060227EDFF858C181
:1039AC006F2A5DD10822002084F843006568002D41
:1039BC00A56005DB20681D4320F00400206051D079
:1039CC000D46B3FBF2F002FB103E1CF80EE09A42DF
:1039DC0005F801ED0346F4D9082A0BD12368DA0760
:1039EC0008D5236962689A42DEBF302305F8013C92
:1039FC0005F1FF35491B21613B4621463046CDF888
:103A0C00008003AAFFF7DCFE013053D14FF0FF30EA
:103A1C0005B0BDE8F083236843F0200323607823CE
:103A2C00DFF8D8C084F845302068156810F0800F96
:103A3C0055F8043B03D110F0400F18BF9BB2156032
:103A4C00C50744BF40F02000206023B11022AAE734
:103A5C00DFF8A4C0E6E7226822F020022260F5E736
:103A6C000A22A0E70D46B7E71368D4F800C01D1D65
:103A7C0060691CF0800F15601B6801D0186003E0B2
:103A8C001CF0400FFAD0188000230D462361B3E7D9
:103A9C001368191D11601D6800212846626800F02A
:103AAC0048F808B1401B606063682361002384F808
:103ABC004330A1E72A46394630462369C0470130D6
:103ACC00A4D023689B0714D4E068039B9842B8BF2A
:103ADC0018469DE701233946304604F11902C047C8
:103AEC00013093D00135E36803995B1AAB42F1DCEA
:103AFC00EAE70025F7E700BF23410008344100083E
:103B0C00884210B501EB020402D98442234607D83F
:103B1C00431EA14207D011F8012B03F8012FF8E73F
:103B2C000244824200D110BD13F8011D02F8011DA0
:103B3C00F7E7034610B5C9B20244934201D1002005
:103B4C0004E01846047801338C42F6D110BD0A44C7
:103B5C00914200F1FF3300D1704710B511F8014BC1
:103B6C00914203F8014FF9D110BD2DE9F041074600
:103B7C0015460C4621B91146BDE8F041FCF7B2BB25
:103B8C002AB9FCF743FB2C462046BDE8F08100F037
:103B9C001AF88542064602D8B5EB500FF4D82946E0
:103BAC003846FCF79FFB804608B94446ECE7B54223
:103BBC002A46214628BF3246FFF7C9FF2146384620
:103BCC00FCF724FBF1E751F8043C181F002BBCBF99
:103BDC000B58C01870470000044A05491368002BA5
:103BEC0008BF0B461844106018467047A802002006
:103BFC00B0020020F8B500BFF8BC08BC9E46704768
:0C3C0C00F8B500BFF8BC08BC9E4670472D
:103C18000D0A00006F6B00004552524F523A207255
:103C28006164696F20636F6E66696720636F6D6D8D
:103C3800616E642072656A65637465643A000000A9
:103C48007061796C6F61645F746F6F5F6C6F6E67C2
:103C580000000000696D6D6564696174655F746971
:103C68006D656F75740000007472616E736D6974B0
:103C78005F74696D656F7574000000007261646936
:103C88006F5F74785F6F6B00726164696F2074781E
:103C98002000000050554D505F4F4E0050554D507C
:103CA8005F4F4646000000004C45445F4F4E000001
:103CB8004C45445F4F46460072616E67652D7465DA
:103CC80073742052583A20626F6F74696E670000EF
:103CD8006D6163207061757365000000524E323467
:103CE800383320616C69766520286D6163207061C6
:103CF800757365202D3E2025732900007379732084
:103D080067657420766572006D6F64756C652066F2
:103D180069726D776172653A202573007379732033
:103D2800676574207665720D0A0000006174746519
:103D38006D707420256C753A20525820746F746128
:103D48006C6C792073696C656E74202D20636865CE
:103D5800636B2054582F52582063726F73736F76B9
:103D6800657220616E64206D6F64756C6520706F7C
:103D780077657200617474656D707420256C753A8E
:103D8800202575207261772062797465733A000086
:103D98002025303258000000726164696F20736515
:103DA80074206D6F64206C6F7261000072616469C9
:103DB8006F2073657420667265712034333335372C
:103DC8003530303000000000726164696F2073651F
:103DD8007420736620736631320000007261646972
:103DE8006F2073657420627720313235000000003F
:103DF800726164696F2073657420637220342F3593
:103E080000000000726164696F207365742063723A
:103E180063206F6E00000000726164696F20736533
:103E28007420697169206F666600000072616469B8
:103E38006F207365742070726C656E203800000006
:103E4800726164696F207365742073796E632033BF
:103E580034000000726164696F20736574207077A4
:103E68007220313400000000726164696F2073654C
:103E780074207764742032303030000072616469D5
:103E88006F20636F6E666967757265643A203433B4
:103E9800332E353735204D487A2C20534631322F72
:103EA80042573132352F4352342F352C2073796ED7
:103EB8006320333400000000627269646765207310
:103EC800657269616C2072656164793A2050554D5C
:103ED800505F4F4E2F4F46462C204C45445F4F4E67
:103EE8002F4F46462C204C45445F50574D20302ECE
:103EF8002E313030000000004252494447452053DB
:103F0800455249414C204552524F5220696E7075B6
:103F1800742064726F7070656400000042524944F6
:103F280047452053455249414C205258206C656EF4
:103F38003D25752022257322000000004252494485
:103F4800474520524144494F205458202573204F5B
:103F58004B20726570656174733D25750000000023
:103F680042524944474520524144494F2054582021
:103F78002573204641494C454420617474656D7031
:103F8800743D2575202825732900000042524944B4
:103F980047452053455249414C204552524F5220E3
:103FA800756E6B6E6F776E206C656E3D257520683B
:103FB80065783D0025303258000000007261646960
:103FC8006F2072782030000027726164696F207258
:103FD800782030272072656675736564202D2072FD
:103FE8006573796E63696E670000000072616469C9
:103FF8006F20727873746F7000000000286D6F6412
:10400800756C652077656E742071756965742C20F0
:1040180072652D61726D696E67290000726164694D
:104028006F5F727800000000726164696F206765D5
:104038007420736E72000000726164696F20676596
:104048007420727373690000525820256C753A20E9
:10405800222573222028736E722025732C207273F8
:104068007369202573290000726164696F5F657246
:1040780072000000286E6F7468696E672068656159
:10408800726420726563656E746C792C2073746930
:104098006C6C206C697374656E696E67290000002A
:1040A800756E65787065637465642066726F6D20DF
:1040B8006D6F64756C653A20252E313335730000B9
:1040C8003031323334353637383941424344454646
:1040D800000000004C45445F50574D200000000090
:1040E80000000000000000000102030406070809A0
:1040F8000000000001020304020304050607080982
:104108000A0B0C0D0E0F10100102232D302B20006E
:10411800686C4C0065666745464700303132333479
:104128003536373839414243444546003031323319
:1041380034353637383961626364656600000000DB
:08414800C4BFFF7F010000006D
:0441500099010008C9
:0441540071010008ED
:10415800040000200000000078000020E00000209B
:1041680048010020000000000000000000000000DE
:104178000000000000000000000000000000000037
:104188000000000000000000000000000000000027
:104198000000000000000000000000000000000017
:0C41A80000127A0010000000010000006E
:040000050800344972
:00000001FF
