:020000040800F2
:100000000050002095220008F50C0008FD0C0008A7
:10001000050D00080D0D0008150D0008000000007A
:100020000000000000000000000000001D0D00089E
:10003000290D000800000000350D0008410D0008E2
:10004000DD220008DD220008DD220008DD22000894
:10005000DD220008DD220008DD220008DD22000884
:10006000DD220008DD220008DD220008DD22000874
:10007000DD220008DD220008DD220008DD22000864
:10008000DD220008DD220008DD220008DD22000854
:10009000DD220008DD220008DD220008DD22000844
:1000A000DD220008DD220008DD220008DD22000834
:1000B000DD220008DD220008DD220008DD22000824
:1000C000DD220008DD220008DD220008DD22000814
:1000D000DD220008DD220008DD220008DD22000804
:1000E0004D0D0008DD220008DD22000800000000A0
:1000F0000000000000000000000000000000000000
:0C01000000000000000000005FF808F1A3
:10010C0010F8012B11F8013B012A28BF9A42F7D0B5
:10011C00D01A7047034613F8012B002AFBD1181A8A
:10012C00013870470348044B834202D0034B03B1A0
:10013C00184770475C0000205C00002000000000A5
:10014C000548064B1B1AD90F01EBA301491002D02D
:10015C00034B03B1184770475C0000205C00002083
:10016C000000000010B5064C237843B9FFF7DAFF06
:10017C00044B13B10448AFF300800123237010BD6E
:10018C005C000020000000004C2A000808B5054B5C
:10019C001BB105490548AFF30080BDE80840FFF7E7
:1001AC00CFBF00BF00000000600000204C2A0008F8
:1001BC0003460244934200D1704703F8011BF9E750
:1001CC0070B500260C4C0D4B1D1BB6EBA50F09D1C1
:1001DC00002602F035FC0A4C0A4B1D1BB6EBA50F92
:1001EC0005D170BD54F8043B98470136EDE754F83F
:1001FC00043B98470136F1E7682D0008682D00088C
:10020C00682D00086C2D00087047704770B50F4CB6
:10021C000E462168054611B900F0A2F8206031465F
:10022C00284600F09DF8431C03D14FF0FF342046C4
:10023C0070BDC41C24F00304A042F8D0211A284637
:10024C0000F08EF80130F2D1EFE700BFB4010020CE
:10025C002DE9F843CD1C25F0030508350C2D38BFCE
:10026C000C25002D064601DBA94204D90C23336072
:10027C000020BDE8F883334F00F066F83B681C465D
:10028C003CBB29463046FFF7C1FF431C044656D100
:10029C003C68A046B8F1000F40D1002C49D023682F
:1002AC004146304604EB030900F05AF8814540D131
:1002BC00216830466D1A2946FFF7A8FF013038D067
:1002CC0023682B4423603B685A685ABBC7F80080EC
:1002DC000EE02268521B1ED40B2A16D96119A342B8
:1002EC00256018BF5960636808BF396062514B6064
:1002FC00304600F02FF804F10B00231D20F007000E
:10030C00C21A1CBF1B1AA350B3E76268A3420CBFEE
:10031C003A605A60ECE723466468B1E74446D8F883
:10032C000480B7E71A465B68A342FBD100235360F5
:10033C00DEE70C233046336000F00CF898E70560DC
:10034C00D6E700BFB80100200148FFF75DBF00BF32
:10035C00B00100200148FFF758BF00BFB0010020DA
:10036C0038B50023054C05460846236002F05AFBBD
:10037C00431C02D1236803B12B6038BDBC010020A3
:10038C0037B5002942D051F8043C0C1F002BB8BFE4
:10039C00E4180190FFF7D8FF1D4A0198136833B990
:1003AC006360146003B0BDE83040FFF7D3BFA342D5
:1003BC0008D9256861198B4201BF19685B68491916
:1003CC002160EDE71A465B680BB1A342FAD91168BC
:1003DC005518A5420BD1246821445418A34211602E
:1003EC00E0D11C685B680C4414605360DAE702D9F6
:1003FC000C230360D6E7256861198B4201BF19688D
:10040C005B684919216063605460CBE703B030BD71
:10041C00B801002080B582B000AF78607868FFF733
:10042C0079FE03469AB264237968064801F0C1FC50
:10043C00642302220449034801F0BBFC00BF0837C7
:10044C00BD4680BDC0010020642A000880B586B07E
:10045C0000AF07F1080300221A605A609A60DA6054
:10046C002B4B9B692A4A43F004039361284B9B69ED
:10047C0003F004037B607B68254B9B69244A43F49F
:10048C0080439361224B9B6903F480433B603B6840
:10049C004FF40073BB600223FB6003237B6107F105
:1004AC00080319461B4801F05FF94FF48063BB60E9
:1004BC000023FB6000233B6107F108031946154834
:1004CC0001F052F9144B154A1A60134B4FF4614268
:1004DC005A60114B00229A600F4B0022DA600E4BCF
:1004EC0000221A610C4B0C225A610B4B00229A61B0
:1004FC00094B0022DA61084801F00BFC0346002B83
:10050C0001D000F0EBFB00BF1837BD4680BD00BF2B
:10051C000010024000080140080200200038014091
:10052C0080B582B000AF00BFF91D3223012205480F
:10053C0001F0CAFC0346002BF6D000BF00BF083701
:10054C00BD4680BD0802002080B588B000AFF860C1
:10055C000B467A607B8100F0C9FCB8610023FB83F9
:10056C002CE007F117010A2301221D4801F0ACFC15
:10057C000346002B1DD1FB7D0D2B1CD0FB7D0A2BC4
:10058C0009D1FB8B002B18D0FB8BFA68134400228B
:10059C001A70002320E0FA8B7B89013B9A420DD222
:1005AC00FB8B5A1CFA831A46FB681344FA7D1A70AB
:1005BC0004E000BF02E000BF00E000BF00F096FCCA
:1005CC000246BB69D31A7A689A42CAD8FB8BFA687E
:1005DC00134400221A70032318462037BD4680BDF1
:1005EC000802002080B584B000AFF860B9603B60B1
:1005FC001346FB80F868FFF78DFD03469AB264231F
:10060C00F9680A4801F0D5FB64230222084907481F
:10061C0001F0CFFBFB883A681946B868FFF794FFE6
:10062C00034618461037BD4680BD00BF08020020A7
:10063C00642A000880B58AB000AF786007F1080121
:10064C004FF47A7320227868FFF7CCFF0346002B17
:10065C0008D107F1080309491846FFF751FD034675
:10066C00002B07D00648FFF7D5FE7868FFF7D2FEBF
:10067C0000F034FB00BF2837BD4680BD682A000857
:10068C006C2A000880B483B000AF0346FB71FB7981
:10069C002F2B05D9FB79392B02D8FB79303B13E092
:1006AC00FB79402B05D9FB79462B02D8FB79373BDC
:1006BC000AE0FB79602B05D9FB79662B02D8FB7914
:1006CC00573B01E04FF0FF3318460C37BD4680BC5A
:1006DC007047000080B5ADF5027D04AF00F0AEFBB5
:1006EC0000F022FA00F08CFA00F060FAA648FFF74E
:1006FC0091FEFFF7ABFE4FF47A7000F001FCFFF7B0
:10070C000FFF0023C7F8F43107F160014FF47A733F
:10071C0030229E48FFF766FF0346002B26D107F1D7
:10072C00600307F580709A4A602101F0D3FD07F54C
:10073C0080731846FFF76EFE07F160014FF47A7371
:10074C0030229448FFF74EFF0346002B40F08C807C
:10075C0007F1600307F580708F4A602101F0BAFD44
:10076C0007F580731846FFF755FE7DE0D7F8F43196
:10077C000133C7F8F43164230D228849884801F00D
:10078C0018FB0023A7F8F23100F0B0FBC7F8DC012E
:10079C0011E0B7F8F23107F5E072D1180A23012203
:1007AC007F4801F091FB0346002B04D1B7F8F231DE
:1007BC000133A7F8F231B7F8F2310F2B08D800F05B
:1007CC0095FB0246D7F8DC31D31AB3F57A7FE0D328
:1007DC00B7F8F231002B08D107F58070D7F8F43157
:1007EC00704A602101F076FD38E0B7F8F23107F578
:1007FC0080700093D7F8F4316B4A602101F06AFDE8
:10080C00C7F8EC010023A7F8EA311DE007F5807268
:10081C00D7F8EC31D018D7F8EC31C3F16001B7F848
:10082C00EA3103F5FC733B4413F8383C5F4A01F0A2
:10083C0051FD0246D7F8EC311344C7F8EC31B7F848
:10084C00EA310133A7F8EA31B7F8EA21B7F8F23107
:10085C009A4203D2D7F8EC315B2BD7DD07F58073C6
:10086C001846FFF7D7FD4FE700BF5148FFF7E2FEF0
:10087C005048FFF7DFFE5048FFF7DCFE4F48FFF70C
:10088C00D9FE4F48FFF7C6FD39464FF47A73202244
:10089C004C48FFF7A7FE0346002B07D13B464A49BD
:1008AC001846FFF72DFC0346002B0FD04748FFF7E7
:1008BC00B1FD39464FF47A7320224548FFF792FE7A
:1008CC00C82000F01DFBFFF72BFE1CE107F16003B5
:1008DC0044F26822A0211846FFF736FE0346002B8F
:1008EC0003D03C48FFF796FD0DE107F160030822A9
:1008FC003949184601F020FD0346002B40F0E980F1
:10090C0007F160030833C7F8E43104E0D7F8E431A9
:10091C000133C7F8E431D7F8E4311B78202BF5D03C
:10092C000023A7F8E2316AE0D7F8E4311B781846C7
:10093C00FFF7A8FEC7F8D801D7F8E43101331B78CC
:10094C001846FFF79FFEC7F8D401D7F8D831002B13
:10095C0064DBD7F8D431002B60DBD7F8D8315BB22D
:10096C001B015AB2D7F8D4315BB213435BB287F890
:10097C00D33197F8D3311F2B30D997F8D3317E2B45
:10098C002CD897F8D3212AE0942A0008AC2A000826
:10099C00B82A0008D82A0008E42A0008F82A000817
:1009AC0008020020082B0008502B00086C2B0008B4
:1009BC00742B0008882B0008A42B0008B82B000807
:1009CC00CC2B0008FC2B0008682A0008082C000817
:1009DC002C2C00083C2C00085C2C00082E22B7F8AC
:1009EC00E231591CA7F8E211194607F5FC73A3F57F
:1009FC00EC735A54D7F8E4310233C7F8E431D7F822
:100A0C00E4311B78002B09D0D7F8E43101331B7883
:100A1C00002B03D0B7F8E2313E2B85D9B7F8E23181
:100A2C0007F5FC72A2F5EC720021D1543F23C7F8F4
:100A3C00B03107F5DA7300221A605A609A603F23CE
:100A4C00C7F8A03107F5D27300221A605A609A6079
:100A5C0007F5D8714FF47A7310222B48FFF7C2FDBB
:100A6C0007F5D0714FF47A7310222848FFF7BAFDBE
:100A7C0097F8A0312D2B0BD097F8A0312F2B03D941
:100A8C0097F8A031392B03D907F5D0733F221A8080
:100A9C001F4B1B6801331E4A13601D4B1A6807F568
:100AAC00807007F5D073029307F5D873019307F1A3
:100ABC00200300931346174AA02101F00BFC07F505
:100ACC0080731846FFF7A6FC2021134800F0D2FFD4
:100ADC00DAE607F1600311491846FFF711FB0346EC
:100AEC00002B03D10E48FFF795FCCDE607F1600310
:100AFC0007F580700B4AA02101F0ECFB07F5807321
:100B0C001846FFF787FCBFE6682C0008782C000815
:100B1C0050020020882C000800080140A82C000876
:100B2C00B42C0008E42C000880B590B000AF07F19D
:100B3C001803282200211846FFF73AFB3B1D002220
:100B4C001A605A609A60DA601A610223BB61012351
:100B5C00BB621023FB6202237B630023BB634FF455
:100B6C006013FB6307F11803184600F0EDF9034618
:100B7C00002B01D000F0B2F80F237B600223BB6086
:100B8C000023FB604FF480633B6100237B613B1DC2
:100B9C000221184600F05AFC0346002B01D000F04D
:100BAC009DF800BF4037BD4680BD000080B500AF4A
:100BBC00114B124A1A60104B4FF4E1325A600E4B33
:100BCC0000229A600C4B0022DA600B4B00221A6157
:100BDC00094B0C225A61084B00229A61064B0022E9
:100BEC00DA61054801F095F80346002B01D000F0BE
:100BFC0075F800BF80BD00BFC0010020004400405C
:100C0C0080B588B000AF07F1100300221A605A605B
:100C1C009A60DA602D4B9B692C4A43F01003936168
:100C2C002A4B9B6903F01003FB60FB68274B9B6905
:100C3C00264A43F020039361244B9B6903F0200365
:100C4C00BB60BB68214B9B69204A43F00403936152
:100C5C001E4B9B6903F004037B607B681B4B9B69F9
:100C6C001A4A43F008039361184B9B6903F008037D
:100C7C003B603B6800222021154800F0E3FE4FF456
:100C8C0000533B61134B7B610023BB6107F11003E5
:100C9C001946114800F068FD20233B6101237B615C
:100CAC000023BB610223FB6107F1100319460848BE
:100CBC0000F05AFD00220021282000F0F4FF28202B
:100CCC0001F00DF800BF2037BD4680BD001002407A
:100CDC0000080140000011100010014080B400AF6A
:100CEC0072B600BF00BFFDE780B400AF00BFFDE7E8
:100CFC0080B400AF00BFFDE780B400AF00BFFDE7DC
:100D0C0080B400AF00BFFDE780B400AF00BFFDE7CB
:100D1C0080B400AF00BFBD4680BC704780B400AF4C
:100D2C0000BFBD4680BC704780B400AF00BFBD465D
:100D3C0080BC704780B500AF00F0C6F800BF80BD26
:100D4C0080B500AF4FF4005000F0AEFE00BF80BD88
:100D5C0080B485B000AF154B9B69144A43F0010376
:100D6C009361124B9B6903F00103BB60BB680F4B93
:100D7C00DB690E4A43F08053D3610C4BDB6903F003
:100D8C0080537B607B680A4B5B68FB60FB6823F0DD
:100D9C00E063FB60FB6843F00073FB60044AFB6894
:100DAC00536000BF1437BD4680BC70470010024032
:100DBC000000014080B588B000AF786007F11003E7
:100DCC0000221A605A609A60DA607B681B68154AC8
:100DDC00934223D1144BDB69134A43F40033D361A0
:100DEC00114BDB6903F40033FB60FB680E4B9B6912
:100DFC000D4A43F0040393610B4B9B6903F004030E
:100E0C00BB60BB680C233B6102237B610223FB614B
:100E1C0007F110031946054800F0A6FC00BF203767
:100E2C00BD4680BD00440040001002400008014057
:100E3C0080B400AF00BFBD4680BC704780B500AF2A
:100E4C00084B1B68074A43F010031360032000F0A3
:100E5C001FFF002000F008F8FFF77AFF0023184668
:100E6C0080BD00BF0020024080B582B000AF78602A
:100E7C00124B1A68124B1B7819464FF47A73B3FB5A
:100E8C00F1F3B2FBF3F3184600F037FF0346002BE7
:100E9C0001D001230EE07B680F2B0AD80022796861
:100EAC004FF0FF3000F0FFFE064A7B681360002312
:100EBC0000E0012318460837BD4680BD50000020D5
:100ECC00580000205400002080B400AF054B1B7864
:100EDC001A46054B1B681344034A136000BFBD46FA
:100EEC0080BC7047580000205402002080B400AF32
:100EFC00024B1B681846BD4680BC7047540200204C
:100F0C0080B584B000AF7860FFF7F0FFB8607B6805
:100F1C00FB60FB68B3F1FF3F05D00A4B1B781A4608
:100F2C00FB681344FB6000BFFFF7E0FF0246BB68A1
:100F3C00D31AFA689A42F7D800BF00BF1037BD46E3
:100F4C0080BD00BF5800002080B586B000AF78602F
:100F5C007B68002B01D1012372E27B681B6803F0D4
:100F6C000103002B00F08780924B5B6803F00C03AD
:100F7C00042B0CD08F4B5B6803F00C03082B12D1A5
:100F8C008C4B5B6803F48033B3F5803F0BD1894BFA
:100F9C001B6803F40033002B6CD07B685B68002B60
:100FAC0068D101234CE27B685B68B3F5803F06D1C6
:100FBC00804B1B687F4A43F4803313602EE07B68C0
:100FCC005B68002B0CD17B4B1B687A4A23F4803373
:100FDC001360784B1B68774A23F4802313601DE061
:100FEC007B685B68B3F5A02F0CD1724B1B68714A00
:100FFC0043F4802313606F4B1B686E4A43F48033B9
:10100C0013600BE06B4B1B686A4A23F4803313604C
:10101C00684B1B68674A23F4802313607B685B680A
:10102C00002B13D0FFF762FF386108E0FFF75EFF7B
:10103C0002463B69D31A642B01D9032300E25D4BB2
:10104C001B6803F40033002BF0D014E0FFF74EFFC5
:10105C00386108E0FFF74AFF02463B69D31A642B5C
:10106C0001D90323ECE1534B1B6803F40033002B31
:10107C00F0D100E000BF7B681B6803F00203002B7B
:10108C0063D04C4B5B6803F00C03002B0BD0494B2B
:10109C005B6803F00C03082B1CD1464B5B6803F414
:1010AC008033002B16D1434B1B6803F00203002B3B
:1010BC0005D07B681B69012B01D00123C0E13D4B9E
:1010CC001B6823F0F8027B685B69DB00394913432A
:1010DC000B603AE07B681B69002B20D0364B012259
:1010EC001A60FFF703FF386108E0FFF7FFFE0246C6
:1010FC003B69D31A022B01D90323A1E12D4B1B68A9
:10110C0003F00203002BF0D02A4B1B6823F0F802EB
:10111C007B685B69DB00274913430B6015E0264BAA
:10112C0000221A60FFF7E2FE386108E0FFF7DEFEEE
:10113C0002463B69D31A022B01D9032380E11D4BD4
:10114C001B6803F00203002BF0D17B681B6803F0D3
:10115C000803002B3AD07B689B69002B19D0174BE6
:10116C0001221A60FFF7C2FE386108E0FFF7BEFEED
:10117C0002463B69D31A022B01D9032360E10D4BC4
:10118C005B6A03F00203002BF0D0012000F0CEFAD2
:10119C001CE00A4B00221A60FFF7A8FE38610FE032
:1011AC00FFF7A4FE02463B69D31A022B08D903238E
:1011BC0046E100BF0010024000004242800442425F
:1011CC00924B5B6A03F00203002BE9D17B681B682E
:1011DC0003F00403002B00F0A6800023FB758B4B5F
:1011EC00DB6903F08053002B0DD1884BDB69874AF8
:1011FC0043F08053D361854BDB6903F08053BB60B4
:10120C00BB680123FB75824B1B6803F48073002BB6
:10121C0018D17F4B1B687E4A43F480731360FFF731
:10122C0065FE386108E0FFF761FE02463B69D31AA0
:10123C00642B01D9032303E1754B1B6803F4807302
:10124C00002BF0D07B68DB68012B06D16F4B1B6A3F
:10125C006E4A43F0010313622DE07B68DB68002BC0
:10126C000CD16A4B1B6A694A23F001031362674B6A
:10127C001B6A664A23F0040313621CE07B68DB687C
:10128C00052B0CD1614B1B6A604A43F004031362BB
:10129C005E4B1B6A5D4A43F0010313620BE05B4B30
:1012AC001B6A5A4A23F001031362584B1B6A574AB4
:1012BC0023F0040313627B68DB68002B15D0FFF767
:1012CC0015FE38610AE0FFF711FE02463B69D31A9E
:1012DC0041F28832934201D90323B1E04B4B1B6A94
:1012EC0003F00203002BEED014E0FFF7FFFD386192
:1012FC000AE0FFF7FBFD02463B69D31A41F2883244
:10130C00934201D903239BE0404B1B6A03F0020379
:10131C00002BEED1FB7D012B05D13C4BDB693B4A0D
:10132C0023F08053D3617B68DB69002B00F087804E
:10133C00364B5B6803F00C03082B61D07B68DB69D0
:10134C00022B46D1334B00221A60FFF7CFFD3861D8
:10135C0008E0FFF7CBFD02463B69D31A022B01D9FB
:10136C0003236DE0294B1B6803F00073002BF0D1B5
:10137C007B681B6AB3F5803F08D1244B5B6823F470
:10138C0000327B689B68214913434B601F4B5B68A1
:10139C0023F474127B68196A7B685B6A0B431B49E4
:1013AC0013434B601B4B01221A60FFF79FFD386102
:1013BC0008E0FFF79BFD02463B69D31A022B01D9CB
:1013CC0003233DE0114B1B6803F00073002BF0D09E
:1013DC0035E0104B00221A60FFF788FD386108E0F9
:1013EC00FFF784FD02463B69D31A022B01D9032374
:1013FC0026E0064B1B6803F00073002BF0D11EE0B7
:10140C007B68DB69012B07D1012319E00010024036
:10141C0000700040600042420B4B5B68FB60FB6855
:10142C0003F480327B681B6A9A4206D1FB6803F492
:10143C0070127B685B6A9A4201D0012300E00023A2
:10144C0018461837BD4680BD0010024080B584B0E8
:10145C0000AF786039607B68002B01D10123D0E0AC
:10146C006A4B1B6803F007033A689A4210D9674B22
:10147C001B6823F0070265493B6813430B60634B01
:10148C001B6803F007033A689A4201D00123B8E0C5
:10149C007B681B6803F00203002B20D07B681B6861
:1014AC0003F00403002B05D0594B5B68584A43F4F6
:1014BC00E06353607B681B6803F00803002B05D0C6
:1014CC00534B5B68524A43F460535360504B5B6818
:1014DC0023F0F0027B689B684D4913434B607B689B
:1014EC001B6803F00103002B40D07B685B68012B69
:1014FC0007D1474B1B6803F40033002B15D1012394
:10150C007FE07B685B68022B07D1414B1B6803F0C3
:10151C000073002B09D1012373E03D4B1B6803F0D2
:10152C000203002B01D101236BE0394B5B6823F0E4
:10153C0003027B685B68364913434B60FFF7D6FCAC
:10154C00F8600AE0FFF7D2FC0246FB68D31A41F2BE
:10155C008832934201D9032353E02D4B5B6803F08F
:10156C000C027B685B689B009A42EBD1274B1B6893
:10157C0003F007033A689A4210D2244B1B6823F0FD
:10158C00070222493B6813430B60204B1B6803F096
:10159C0007033A689A4201D0012332E07B681B684A
:1015AC0003F00403002B08D0194B5B6823F4E062B2
:1015BC007B68DB68164913434B607B681B6803F040
:1015CC000803002B09D0124B5B6823F460527B6834
:1015DC001B69DB000E4913434B6000F021F80246F7
:1015EC000B4B5B681B0903F00F030A49CB5C22FA17
:1015FC0003F3094A1360094B1B681846FFF734FCC8
:10160C00002318461037BD4680BD00BF00200240A5
:10161C0000100240002D0008500000205400002053
:10162C0080B487B000AF0023FB600023BB600023B5
:10163C007B6100237B6000233B611E4B5B68FB607E
:10164C00FB6803F00C03042B02D0082B03D027E01B
:10165C00194B3B6127E0FB689B0C03F00F03174A07
:10166C00D35C7B60FB6803F48033002B10D0114BF0
:10167C005B685B0C03F00103114AD35CBB607B68B5
:10168C000D4A03FB02F2BB68B2FBF3F37B6104E08F
:10169C007B680C4A02FB03F37B617B693B6102E0D4
:1016AC00054B3B6100BF3B6918461C37BD4680BCEF
:1016BC00704700BF0010024000127A00182D00087D
:1016CC00282D000800093D0080B400AF024B1B68B8
:1016DC001846BD4680BC70475000002080B500AF56
:1016EC00FFF7F2FF0246054B5B681B0A03F007038A
:1016FC000349CB5C22FA03F3184680BD001002406C
:10170C00102D000880B500AFFFF7DEFF0246054B39
:10171C005B68DB0A03F007030349CB5C22FA03F393
:10172C00184680BD00100240102D000880B485B012
:10173C0000AF78600A4B1B680A4AA2FB03235B0AC2
:10174C007A6802FB03F3FB6000BFFB685A1EFA6069
:10175C00002BF9D100BF00BF1437BD4680BC7047C9
:10176C0050000020D34D621080B48BB000AF786075
:10177C00396000237B6200233B6253E101227B6AC8
:10178C0002FA03F37B613B681B687A6913403B6187
:10179C003A697B699A4240F042813B685B688F4AA8
:1017AC00934247D08D4A93425ED88D4A934241D0A2
:1017BC008B4A934258D88B4A93423BD0894A9342E6
:1017CC0052D8894A934235D0874A93424CD8874A9B
:1017DC0093422FD0854A934246D8854A934229D0CA
:1017EC00834A934240D8122B1FD0122B3CD8112B7A
:1017FC0011D0112B38D8032B33D0032B34D8022B18
:10180C000ED0022B30D8002B14D0012B2CD13B68DE
:10181C00DB683B6229E03B68DB6804333B6224E015
:10182C003B68DB6808333B621FE03B68DB680C33CA
:10183C003B621AE03B689B68002B02D104233B629D
:10184C0013E03B689B68012B05D108233B627B6846
:10185C007A691A6109E008233B627B687A695A61EC
:10186C0003E000233B6200E000BF3B69FF2B02D882
:10187C007B68FB6102E07B680433FB613B69FF2BF7
:10188C0003D87B6A9B00BB6103E07B6A083B9B002F
:10189C00BB61FB691A680F21BB6901FA03F3DB43D7
:1018AC001A40396ABB6901FA03F31A43FB691A60DF
:1018BC003B685B6803F08053002B00F0B0804D4B0D
:1018CC009B694C4A43F0010393614A4B9B6903F0BB
:1018DC000103BB60BB68484A7B6A9B08023352F821
:1018EC002330FB607B6A03F003039B000F2202FA98
:1018FC0003F3DB43FA681340FB607B683F4A934277
:10190C0013D07B683E4A93420DD07B683D4A93428C
:10191C0007D07B683C4A934201D1032306E00423A1
:10192C0004E0022302E0012300E000237A6A02F0C3
:10193C00030292009340FA681343FB602E497B6AC2
:10194C009B080233FA6841F823203B685B6803F478
:10195C008013002B06D02D4B9A682C493B691343FE
:10196C008B6006E0294B9A683B69DB43274913409F
:10197C008B603B685B6803F40013002B06D0234B91
:10198C00DA6822493B691343CB6006E01F4BDA68E7
:10199C003B69DB431D491340CB603B685B6803F438
:1019AC000033002B06D0194B5A6818493B69134376
:1019BC004B6006E0154B5A683B69DB4313491340F7
:1019CC004B603B685B6803F48033002B20D00F4BDB
:1019DC001A680E493B6913430B6020E0000032107B
:1019EC000000311000002210000021100000121025
:1019FC0000001110001002400000014000080140DE
:101A0C00000C014000100140001401400004014092
:101A1C000B4B1A683B69DB43094913400B607B6A2B
:101A2C0001337B623B681A687B6A22FA03F3002B52
:101A3C007FF4A4AE00BF00BF2C37BD4680BC7047FE
:101A4C000004014080B483B000AF78600B467B800B
:101A5C0013467B707B78002B03D07A887B681A61E5
:101A6C0003E07B881A047B681A6100BF0C37BD4603
:101A7C0080BC704780B485B000AF78600B467B802B
:101A8C007B68DB68FB607A88FB6813401A04FB6890
:101A9C00D9437B880B401A437B681A6100BF14370B
:101AAC00BD4680BC7047000080B582B000AF0346D5
:101ABC00FB80084B5A69FB881340002B06D0054A63
:101ACC00FB885361FB88184600F006F800BF083706
:101ADC00BD4680BD0004014080B483B000AF034616
:101AEC00FB8000BF0C37BD4680BC704780B485B00E
:101AFC0000AF78607B6803F00703FB600C4BDB687E
:101B0C00BB60BA684FF6FF031340BB60FB681A0258
:101B1C00BB68134343F0BF6343F40033BB60044A18
:101B2C00BB68D36000BF1437BD4680BC704700BF94
:101B3C0000ED00E080B400AF044BDB681B0A03F03F
:101B4C0007031846BD4680BC704700BF00ED00E09F
:101B5C0080B483B000AF0346FB7197F90730002BBC
:101B6C000BDBFB7903F01F02064997F907305B0981
:101B7C00012000FA02F241F8232000BF0C37BD46C9
:101B8C0080BC704700E100E080B483B000AF034636
:101B9C003960FB7197F90730002B0ADB3B68DAB22E
:101BAC000C4997F907301201D2B20B4483F8002389
:101BBC000AE03B68DAB20849FB7903F00F03043BF7
:101BCC001201D2B20B441A7600BF0C37BD4680BC52
:101BDC00704700BF00E100E000ED00E080B489B088
:101BEC0000AFF860B9607A60FB6803F007037B61B3
:101BFC007B69033B042B04D87B69C3F10703FB61AE
:101C0C0001E00423FB617B690433062B03D97B6958
:101C1C00033BBB6101E00023BB614FF0FF32FB696A
:101C2C0002FA03F3DA43BB681A40BB699A404FF0DF
:101C3C00FF31BB6901FA03F3D9437B680B401343B3
:101C4C0018462437BD4680BC7047000080B582B072
:101C5C0000AF78607B68013BB3F1807F01D3012337
:101C6C000FE00A4A7B68013B53600F214FF0FF30B5
:101C7C00FFF78AFF054B00229A60044B07221A607B
:101C8C00002318460837BD4680BD00BF10E000E0B9
:101C9C0080B582B000AF78607868FFF727FF00BF8F
:101CAC000837BD4680BD80B586B000AF0346B9602D
:101CBC007A60FB7300237B61FFF73CFF78617A68E5
:101CCC00B9687869FFF78AFF024697F90F30114619
:101CDC001846FFF759FF00BF1837BD4680BD80B5C9
:101CEC0082B000AF0346FB7197F907301846FFF737
:101CFC002FFF00BF0837BD4680BD80B582B000AF56
:101D0C0078607868FFF7A2FF034618460837BD468F
:101D1C0080BD80B582B000AF78607B68002B01D1AC
:101D2C00012342E07B6893F84130DBB2002B06D1F3
:101D3C007B68002283F840207868FFF73BF87B68CB
:101D4C00242283F841207B681B68DA687B681B6857
:101D5C0022F40052DA60786800F008FA7B681B689D
:101D6C001A697B681B6822F490421A617B681B68B5
:101D7C005A697B681B6822F02A025A617B681B68CF
:101D8C00DA687B681B6842F40052DA607B680022D8
:101D9C005A647B68202283F841207B68202283F8D8
:101DAC0042207B6800225A63002318460837BD4640
:101DBC0080BD80B58AB002AFF860B9603B60134655
:101DCC00FB8000237B61FB6893F84130DBB2202B56
:101DDC0075D1BB68002B02D0FB88002B01D10123ED
:101DEC006EE0FB6800225A64FB68212283F84120D4
:101DFC00FFF77CF87861FB68FA889A84FB68FA88AC
:101E0C00DA84FB689B68B3F5805F08D1FB681B69BB
:101E1C00002B04D10023FB61BB68BB6103E0BB68F2
:101E2C00FB610023BB612EE03B6800937B690022C1
:101E3C008021F86800F0DFF80346002B05D0FB6822
:101E4C00202283F8412003233AE0FB69002B0BD1BD
:101E5C00BB691B881A46FB681B68C2F308025A60F0
:101E6C00BB690233BB6107E0FB691A78FB681B682E
:101E7C005A60FB690133FB61FB68DB8C9BB2013B55
:101E8C009AB2FB68DA84FB68DB8C9BB2002BCBD15B
:101E9C003B6800937B6900224021F86800F0ABF8A6
:101EAC000346002B05D0FB68202283F84120032336
:101EBC0006E0FB68202283F84120002300E0022387
:101ECC0018462037BD4680BD80B58AB002AFF86099
:101EDC00B9603B601346FB8000237B61FB6893F881
:101EEC004230DBB2202B40F08180BB68002B02D04B
:101EFC00FB88002B01D1012379E0FB6800225A6496
:101F0C00FB68222283F84220FB6800221A63FEF74A
:101F1C00EDFF7861FB68FA889A85FB68FA88DA85A8
:101F2C00FB689B68B3F5805F08D1FB681B69002BCD
:101F3C0004D10023FB61BB68BB6103E0BB68FB61A0
:101F4C000023BB6147E03B6800937B6900222021A2
:101F5C00F86800F050F80346002B05D0FB682022EF
:101F6C0083F84220032342E0FB69002B0CD1FB6871
:101F7C001B685B689BB2C3F308039AB2BB691A80F7
:101F8C00BB690233BB611FE0FB689B68B3F5805FE4
:101F9C0007D0FB689B68002B0AD1FB681B69002BE0
:101FAC0006D1FB681B685B68DAB2FB691A7008E043
:101FBC00FB681B685B68DBB203F07F03DAB2FB697A
:101FCC001A70FB690133FB61FB68DB8D9BB2013B33
:101FDC009AB2FB68DA85FB68DB8D9BB2002BB2D121
:101FEC00FB68202283F84220002300E002231846DD
:101FFC002037BD4680BD80B586B000AFF860B960B3
:10200C003B601346FB713BE03B6AB3F1FF3F37D0BB
:10201C00FEF76CFF02463B68D31A3A6A9A4202D327
:10202C003B6A002B01D103233AE0FB681B68DB6899
:10203C0003F00403002B23D0BB68802B20D0BB689B
:10204C00402B1DD0FB681B681B6803F00803082B92
:10205C0016D100237B61FB681B681B687B61FB68E6
:10206C001B685B687B617B69F86800F01DF8FB6896
:10207C0008225A64FB68002283F8402001230FE0F9
:10208C00FB681B681A68BB681340BA689A420CBF9D
:10209C0001230023DBB21A46FB799A42B4D0002309
:1020AC0018461837BD4680BD80B495B000AF786037
:1020BC007B681B680C337B637B6B53E8003F3B6393
:1020CC003B6B23F49073FB647B681B680C33FA6CDA
:1020DC003A64FB63F96B3A6C41E80023BB63BB6B5E
:1020EC00002BE5D17B681B6814333B623B6A53E8D9
:1020FC00003FFB61FB6923F00103BB647B681B6839
:10210C001433BA6CFA62BB62B96AFA6A41E800230A
:10211C007B627B6A002BE5D17B681B6B012B19D191
:10212C007B681B680C33FB60FB6853E8003FBB60AB
:10213C00BB6823F010037B647B681B680C337A6CE0
:10214C00BA617B617969BA6941E800233B613B69FB
:10215C00002BE5D17B68202283F842207B6800228B
:10216C001A6300BF5437BD4680BC704780B584B03D
:10217C0000AF78607B681B681B6923F440517B6857
:10218C00DA687B681B680A431A617B689A687B680B
:10219C001B691A437B685B691343BB607B681B68D4
:1021AC00DB6823F4B05323F00C037A681268B96827
:1021BC000B43D3607B681B685B6923F440717B68BD
:1021CC009A697B681B680A435A617B681B682C4AB6
:1021DC00934203D1FFF796FAF86002E0FFF77EFA1C
:1021EC00F860FA6813469B0013449A001A447B6803
:1021FC005B689B00B2FBF3F3224AA2FB03235B094F
:10220C001901FA6813469B0013449A001A447B6820
:10221C005B689B00B2FBF3F21A4BA3FB02035B0956
:10222C00642000FB03F3D31A1B013233154AA2FBC3
:10223C0003235B0903F0F0031944FA6813469B006F
:10224C0013449A001A447B685B689B00B2FBF3F260
:10225C000C4BA3FB02035B09642000FB03F3D31AB2
:10226C001B013233074AA2FB03235B0903F00F0265
:10227C007B681B680A449A6000BF1037BD4680BD5E
:10228C00003801401F85EB51FEF7D2FD0B480C497D
:10229C000C4A002302E0D458C4500433C4188C42B6
:1022AC00F9D3094A094C002301E013600432A2421D
:1022BC00FBD3FDF785FFFEF70DFA704700000020F9
:1022CC005C000020702D00085C0000205C020020E7
:1022DC00FEE700000CB430B5154B0C1E1D689DB00C
:1022EC0008DA8B234FF0FF302B601DB0BDE8304077
:1022FC0002B070474FF000031B9318BF0123E31A81
:10230C00049307930B4B029006900593284621AB40
:10231C00209A02A9019300F081F8431CBCBF8B23C7
:10232C002B60002CE1D00022029B1A70DDE700BF6D
:10233C00000000200802FFFF10B56AB101398418B3
:10234C00027811F8013F9A4204D10130A04201D029
:10235C00002AF5D1D01A10BD1046FCE72DE9F04744
:10236C001F468E688246BE420C469046334653D872
:10237C00B1F90C0010F4906F2BD0656923680969D2
:10238C0005EB4505A3EB010905EBD5757B1C6D1021
:10239C004B44AB422A4684BF1D462A46430527D5EB
:1023AC0011465046FDF754FF064658B34A4621697C
:1023BC0000F021FBA38923F4906343F08003A381F5
:1023CC0026614E4426603B463E466561A5EB0905F9
:1023DC00A5601F463A464146206800F0E5FA002009
:1023EC00A3689B1BA36023683B442360BDE8F08774
:1023FC00504600F0ABFA06460028E1D15046216960
:10240C00FDF7BEFF0C23CAF80030A3894FF0FF3054
:10241C0043F04003A381E9E73E46DBE72DE9F047B3
:10242C001F468B8906461B060D4614469CB010D5DC
:10243C000B6973B94021FDF70BFF2860286130B997
:10244C000C2333604FF0FF301CB0BDE8F087402305
:10245C006B610023099320238DF8293030234FF032
:10246C0001080397644F8DF82A3023461A78994651
:10247C001AB1252A03F10103F8D1B9EB040A0BD0E8
:10248C005346224629463046FFF768FF013000F0DC
:10249C00A380099A5244099299F80030002B00F05D
:1024AC009B8000224FF0FF33CDE9053209F1010981
:1024BC00049207928DF853201A924C46052214F878
:1024CC00011B4D4800F089FA049AD0B9D00644BFDC
:1024DC0020238DF85330110744BF2B238DF8533034
:1024EC0099F800302A2B13D04B4600204FF00A0CE1
:1024FC0007991A781C46303A092A4AD9A8B107918B
:10250C0013E0C01B08FA00F01043A1460490D4E776
:10251C00039B191D1B680391002BBBBF5B4242F050
:10252C00020207930793B8BF049223782E2B0AD18B
:10253C0063782A2B32D1039B02341A1D1B68039239
:10254C0043EAE3730593DFF8B490032248462178FD
:10255C0000F043FA38B14022049BA0EB0900824002
:10256C001343013404932178062225488DF8281052
:10257C0000F033FA002835D0224818BB039B0733F0
:10258C0023F0070308330393099B01340344099395
:10259C006BE701200CFB01210133AAE700234FF06C
:1025AC000A0C18460593611C0A780C46303A092A25
:1025BC0003D9002BC7D00590C5E701230CFB0020E5
:1025CC000131F1E703AB00932A4630460E4B04A9C8
:1025DC00AFF30080421CD7D1AB895B063FF532AF1D
:1025EC00099831E703AB00932A463046064B04A901
:1025FC0000F082F8EEE700BF2A2D0008302D00080D
:10260C00342D000800000000692300082DE9F04774
:10261C00914698468A680B6907469342B8BF1346A1
:10262C00C9F8003091F843200C46089E12B10133D2
:10263C00C9F800302368990642BFD9F8003002333C
:10264C00C9F80030256815F0060507D104F1190A00
:10265C00E368D9F800209B1AAB4229DC94F843308C
:10266C002268003B18BF012392062ED441463846FF
:10267C0004F14302B047013021D02368A16803F074
:10268C000603042B12BF0025E568D9F80030226937
:10269C0004BFED1A25EAE5758B1A2B449142C8BF8D
:1026AC001D464FF000091A344D451AD1002008E0A0
:1026BC000123524641463846B047013003D14FF012
:1026CC00FF30BDE8F0870135C2E73020E11881F812
:1026DC0043005A1C94F845102244023382F84310EC
:1026EC00C4E70123224641463846B0470130E6D0C4
:1026FC0009F10109D8E700002DE9F04398460B7E5B
:10270C0085B0782B174606460C460C9A09D8622BD6
:10271C0001F1430108D8002B00F0DC80582B00F0AD
:10272C00BD8004F1420539E0A3F163001528F8D807
:10273C0001A555F820F000BF9D270008B12700081F
:10274C002F2700082F2700082F2700082F27000805
:10275C00B12700082F2700082F2700082F27000873
:10276C002F270008C1280008DD2700086F28000863
:10277C002F2700082F270008E92800082F2700081A
:10278C00DD2700082F2700082F27000877280008CE
:10279C00136804F14205191D1B68116084F842305E
:1027AC000123A8E013682568181D1060280601D5C0
:1027BC001B6803E06A06FBD5B3F90030002B03DA83
:1027CC002D225B4284F843200A22DFF878C113E003
:1027DC002568106815F0800F50F8043B02D16D0687
:1027EC0048BF9BB21060227EDFF858C16F2A5DD1C2
:1027FC000822002084F843006568002DA56005DBE5
:10280C0020681D4320F00400206051D00D46B3FB1E
:10281C00F2F002FB103E1CF80EE09A4205F801EDB6
:10282C000346F4D9082A0BD12368DA0708D52369A3
:10283C0062689A42DEBF302305F8013C05F1FF3592
:10284C00491B21613B4621463046CDF8008003AA46
:10285C00FFF7DCFE013053D14FF0FF3005B0BDE87F
:10286C00F083236843F0200323607823DFF8D8C07B
:10287C0084F845302068156810F0800F55F8043B3B
:10288C0003D110F0400F18BF9BB21560C50744BFB1
:10289C0040F02000206023B11022AAE7DFF8A4C08A
:1028AC00E6E7226822F020022260F5E70A22A0E780
:1028BC000D46B7E71368D4F800C01D1D60691CF005
:1028CC00800F15601B6801D0186003E01CF0400FEE
:1028DC00FAD0188000230D462361B3E71368191D45
:1028EC0011601D6800212846626800F076F808B176
:1028FC00401B606063682361002384F84330A1E7C8
:10290C002A46394630462369C0470130A4D0236893
:10291C009B0714D4E068039B9842B8BF18469DE708
:10292C0001233946304604F11902C047013093D0D7
:10293C000135E36803995B1AAB42F1DCEAE7002549
:10294C00F7E700BF3B2D00084C2D00082DE9F041A6
:10295C00074615460C4621B91146BDE8F041FDF776
:10296C0077BC2AB9FDF70CFD2C462046BDE8F0815A
:10297C0000F04FF88542064602D8B5EB500FF4D85C
:10298C0029463846FDF764FC804608B94446ECE716
:10299C00B5422A46214628BF324600F02CF8214683
:1029AC003846FDF7EDFCF1E7884210B501EB020467
:1029BC0002D98442234607D8431EA14207D011F8FE
:1029CC00012B03F8012FF8E70244824200D110BD1D
:1029DC0013F8011D02F8011DF7E7034610B5C9B243
:1029EC000244934201D1002004E0184604780133DC
:1029FC008C42F6D110BD0A44914200F1FF3300D154
:102A0C00704710B511F8014B914203F8014FF9D101
:102A1C0010BD51F8043C181F002BBCBF0B58C0183C
:102A2C0070470000044A05491368002B08BF0B4689
:102A3C0018441060184670475802002060020020AD
:102A4C00F8B500BFF8BC08BC9E467047F8B500BF8F
:082A5C00F8BC08BC9E4670475F
:102A64000D0A00006F6B00004552524F523A20721B
:102A74006164696F20636F6E66696720636F6D6D53
:102A8400616E642072656A65637465643A0000006F
:102A940072616E67652D746573742052583A2062B2
:102AA4006F6F74696E6700006D6163207061757388
:102AB40065000000524E3234383320616C6976650B
:102AC40020286D6163207061757365202D3E20257B
:102AD400732900007379732067657420766572002A
:102AE4006D6F64756C65206669726D776172653AA5
:102AF4002025730073797320676574207665720DE1
:102B04000A000000617474656D707420256C753A58
:102B140020525820746F74616C6C792073696C65F1
:102B24006E74202D20636865636B2054582F5258AF
:102B34002063726F73736F76657220616E64206DAB
:102B44006F64756C6520706F77657200617474656D
:102B54006D707420256C753A20257520726177207C
:102B640062797465733A0000202530325800000001
:102B7400726164696F20736574206D6F64206C6F7B
:102B840072610000726164696F20736574206672FB
:102B94006571203433333537353030300000000070
:102BA400726164696F207365742073662073663183
:102BB40032000000726164696F2073657420776469
:102BC4007420313530303000726164696F20636F76
:102BD4006E666967757265643A203433332E35370F
:102BE40035204D487A2C2053463132202D206C69F3
:102BF4007374656E696E6700726164696F207278C0
:102C04002030000027726164696F207278203027B9
:102C14002072656675736564202D20726573796E04
:102C240063696E6700000000726164696F207278E6
:102C340073746F7000000000286D6F64756C6520FC
:102C440077656E742071756965742C2072652D61C9
:102C5400726D696E67290000726164696F5F7278D2
:102C640000000000726164696F2067657420736EF0
:102C740072000000726164696F206765742072736A
:102C840073690000525820256C753A20222573225E
:102C94002028736E722025732C207273736920258B
:102CA40073290000726164696F5F657272000000CD
:102CB400286E6F7468696E67206865617264206944
:102CC4006E20746869732077696E646F772C207343
:102CD40074696C6C206C697374656E696E67290025
:102CE400756E65787065637465642066726F6D20B7
:102CF4006D6F64756C653A20257300000000000058
:102D04000000000001020304060708090000000097
:102D14000102030402030405060708090A0B0C0D4B
:102D24000E0F10100102232D302B2000686C4C0074
:102D340065666745464700303132333435363738B7
:102D44003941424344454600303132333435363715
:0C2D5400383961626364656600000000AD
:082D6000ACD3FF7F010000006D
:042D680099010008C5
:042D6C0071010008E9
:102D7000040000200000000078000020E000002097
:102D800048010020000000000000000000000000DA
:102D90000000000000000000000000000000000033
:102DA0000000000000000000000000000000000023
:102DB0000000000000000000000000000000000013
:0C2DC00000127A0010000000010000006A
:040000050800229538
:00000001FF
